:020000040800F2
:10000000C816002099010008B71900089D170008BC
:10001000B5190008CB020008A91F00080000000065
:1000200000000000000000000000000001010008C6
:10003000230300080000000045010008C91C000857
:10004000B3010008B3010008B3010008B3010008C0
:10005000B3010008B3010008B3010008B3010008B0
:10006000B3010008B3010008B3010008B3010008A0
:10007000B3010008ED020008B3010008B301000855
:10008000B3010008B3010008B3010008B301000880
:10009000B3010008B3010008B3010008B301000870
:1000A000B3010008451D0008B3010008B3010008B2
:1000B000B3010008B3010008B3010008B301000850
:1000C000B3010008B3010008B3010008B301000840
:1000D000B3010008911F00089D1F0008B30100082C
:1000E000B3010008B3010008B3010008DFF80CD029
:1000F00000F0CAF8004800475D270008C816002035
:10010000224B19680868B0E8F00F80F30988BFF344
:100110006F8F4FF0000080F311884EF00D0E704786
:100120000000000006480068006880F3088862B696
:1001300061B6BFF34F8FBFF36F8F00DF00BF00BF0B
:1001400008ED00E0EFF30980BFF36F8F0F4B1A68E3
:1001500020E9F00F106008B54FF0500080F31188CF
:10016000BFF34F8FBFF36F8F03F03CF84FF00000E9
:1001700080F31188BDE8084019680868B0E8F00FFE
:1001800080F30988BFF36F8F704700BF2000002005
:10019000EFF3058070470000064880470648004797
:1001A000FEE7FEE7FEE7FEE7FEE7FEE7FEE7FEE727
:1001B000FEE7FEE7431D0008ED000008202A04DBEF
:1001C000203A21FA02F00021704721FA02F3D040D0
:1001D000C2F12002914008431946704740EA0103EA
:1001E0009B0703D009E008C9121F08C0042AFAD2ED
:1001F00003E011F8013B00F8013B521EF9D27047B1
:10020000D2B201E000F8012B491EFBD27047002258
:10021000F6E710B513460A4604461946FFF7F0FF05
:10022000204610BD2DE9F05F0546002092469B4612
:1002300088460646814640241BE0284641464746FC
:100240002246FFF7BBFF53465A46C01A914110D3CE
:1002500011461846224600F029F82D1A67EB0108CE
:100260004F4622460120002100F020F817EB00093C
:100270004E41201EA4F10104DFDC484631462A46E7
:100280004346BDE8F09F0000064C074D06E0E068DD
:1002900040F0010394E8070098471034AC42F6D3CD
:1002A000FFF728FF6C3700088C370008202A04DB92
:1002B000203A00FA02F1002070479140C2F1200379
:1002C00020FA03F3194390407047FEE700200549E8
:1002D00060220A54401CC028FBD3C02201490248B6
:1002E00000F0CCBEB000002004040020014800F063
:1002F000A9B800005C04002030B590F840500124FB
:10030000AC40C56B6C60046863604368102B036885
:1003100003D099600068C26030BD9A600068C16017
:1003200030BD7047704770B5044600200346312544
:100330000EE014F8012B50400022060602D585EA93
:10034000400000E04000521CC0B2082AF5DB5B1CF4
:100350008B42EEDB70BD000010B5F52001F02CFBE8
:10036000A0F57F41FF3907D020F00F0040F2E241B5
:10037000484300143C3810BD004810BD19FCFFFF75
:1003800010B5F32001F018FBA0F57F41FF3908D02C
:1003900020F0030040F2DD6148430014A0F5EA704C
:1003A00010BD014810BD000019FCFFFF10B590F80A
:1003B00021100024022903D00421816301243DE09F
:1003C00001680A6822F00E020A6001680A6822F0D9
:1003D00001020A601A4A0168914201D1012121E01B
:1003E000174A1432914201D110211BE0144A2832DD
:1003F000914201D1891515E0114A3C32914201D157
:1004000089140FE00E4A5032914202D14FF48031EC
:1004100008E00B4A6432914202D14FF4801101E0AE
:100420004FF08071064A083A5160012180F821108E
:10043000002180F82010416B01B18847204610BD93
:10044000080002402DE9F05FC16B0C6801680B6881
:10045000D0F840C0042202FA0CF2494DDFF824A182
:10046000494E4A4FDFF828B1DFF828E122422CD06C
:100470005A072AD50A68920603D40A6822F00402B1
:100480000A600168A94201D1042219E0514501D155
:10049000402215E0B14202D14FF4806210E0B9422F
:1004A00002D14FF480420BE0594502D14FF4802233
:1004B00006E0714502D14FF4800201E04FF0806206
:1004C0002F4908394A60C16A3BE04FF0020808FA38
:1004D0000CF818EA040F4FF000094FF0010235D074
:1004E0005FEA837832D50B689B0605D40B6823F04E
:1004F0000A030B6080F821200168A94201D1022281
:1005000019E0514501D1202215E0B14202D14FF44A
:10051000007210E0B94202D14FF400520BE059458D
:1005200002D14FF4003206E0714502D14FF40012BF
:1005300001E04FF00072124908394A6080F82090BB
:10054000816A00291AD0BDE8F05F0847082505FA3E
:100550000CF5254212D01B0710D50B6823F00E03B3
:100560000B6090F84010C36B02FA01F1596082638E
:1005700080F8212080F82090016BE2E7BDE8F09F31
:10058000080002401C0002403000024044000240CB
:10059000580002406C00024030B528B308C8134927
:1005A00014221944B1FBF2F18900C163104981633F
:1005B000022141771A6843F6F0718A43D0E90014AA
:1005C0002143D0E902452C43214304692143446976
:1005D00021438469214311431960002141630122B1
:1005E00042770177084630BD012030BDF8FFFDBFDE
:1005F0000000024070B5044690F820000025012854
:100600000CD0012084F8200094F821600020012EF5
:1006100006D084F820000225284670BD022070BD57
:10062000022684F82160A0632068066826F001068F
:1006300006602046FFF760FEE06A00282068016837
:1006400002D041F00E0106E021F0040101602068B3
:10065000016841F00A0101602068016841F0010170
:100660000160D9E770B5044600F00CF90546601C3E
:1006700002D004480078044400F004F9401BA04272
:10068000FAD370BD100000202DE9F84FDFF8B891C3
:10069000002409F1040A0AF1040B23460F270BF189
:1006A000040EC9E00125A5402A40AA427DD1674E2B
:1006B000D1F804C0ACEB0608B44532D014DCBCF170
:1006C000030F3AD009DCBCF1000F2AD0BCF1010FB6
:1006D0001CD0BCF1020F31D11DE0BCF1110F17D0BD
:1006E000BCF1120F2AD119E0B8F5881F19D006DC29
:1006F000B8F5803F15D0B8F5801F1FD111E0B8F5CF
:10070000001F0ED0B8F5041F18D10AE0CB6815E021
:10071000CB681B1D12E0CB6808330FE0CB680C33AD
:100720000CE08B682BB1012B4FF0080303D045611F
:1007300004E0042302E0056100E00023FF2A01D861
:10074000064601E000F104064FEA840501D9A5F14F
:100750002005D6F8008007FA05FC28EA0C0803FA01
:1007600005F548EA0508C6F800804D68ED0062D539
:10077000374DAE6946F00106AE61AD6924F003065F
:1007800005F001050095334D06EB050CDCF808502B
:10079000A607360F07FA06F825EA0805DFF8B8803D
:1007A000404503D14FF0000817E044E0DFF8AC808B
:1007B000404502D14FF001080FE0DFF8A48040452A
:1007C00002D14FF0020808E0DFF89880404502D1DE
:1007D0004FF0030801E04FF0040808FA06F848EA71
:1007E0000508CCF808804D68D9F80060ED034D4647
:1007F00001D5164300E096432E604D68DAF800609C
:10080000AD03554601D5164300E096432E604D6872
:10081000DBF80060ED025D4601D5164300E096432B
:100820002E604D68DEF80060AD02754601D51643B6
:1008300000E096432E60641C0D682A46E5407FF474
:1008400031AFBDE8F88F0000000401400000111036
:10085000001002400000014000080140000C01406F
:100860000010014000140140C26821EA02030A405E
:1008700043EA0241016170470AB10161704709040E
:10088000FBE700000148806870470000100000206E
:10089000024881680278114481607047100000208E
:1008A000074810B5016841F010010160032000F015
:1008B00095F8002000F006F800F03EF8002010BD8A
:1008C0000020024000B5014687B00022192000F048
:1008D00065F8192000F054F81348816941F400616B
:1008E0008161806905A900F400600690684600F007
:1008F0001DF900F04BF90D490D4AB0FBF1F10D481F
:10090000491E0260416040F2E7320021C0E9032144
:10091000816000F023FC10B1012007B000BD054844
:1009200000F04AFCF9E700000010024040420F00CE
:10093000002C0140200500200F4808B5816941F0D6
:1009400001018161816901F001010091C16941F0FA
:100950008051C161C069002200F0805000900F21D9
:10096000901E00F01BF80548416821F0E06141F05D
:100970000071416008BD000000100240000001400D
:10098000002809DB00F01F0201219140400980008E
:1009900000F1E020C0F8001170470000F0B40E4BE9
:1009A0001B680C46C3F30223C3F10705042D00D9CD
:1009B0000425191D072901D2002300E0DB1E0126B2
:1009C00006FA05F1491E214099409E40761E1640C8
:1009D0003143F0BC01F0FABA0CED00E0064900F03A
:1009E000070208684FF6FF03184040EA0220034A56
:1009F00010430860704700000CED00E00000FA05AD
:100A00002DE9F0470F46050061D0434E306800F0F5
:100A10000700B84209D2306820F007003843306040
:100A2000306800F00700B84251D128683B4C81077C
:100A300012D5400703D5606840F4E0606060287814
:100A4000000703D5606840F4605060606068A96882
:100A500020F0F000084360602878C00728D068685C
:100A6000012810D02168022810D0890700292EDA29
:100A7000616821F0030101436160FFF703FF8046D5
:100A800041F288390DE021688903EFE78901EDE73C
:100A9000FFF7F8FEA0EB0801494502D90320BDE8A5
:100AA000F0876068696800F00C00B0EB810FEFD14F
:100AB000306800F00700B8420BD9306820F007001A
:100AC00038433060306800F00700B84201D00120A0
:100AD000E5E72878400705D56068E96820F4E0601C
:100AE000084360602878000706D56068296920F40B
:100AF000605040EAC100606000F058F86168084A40
:100B0000C1F30311515CC8400649086006480068FB
:100B1000FFF7D8FE0020C2E700200240001002408C
:100B2000103700081C000020140000200F22026073
:100B30000C4A536803F003034360536803F0F00367
:100B40008360536803F4E063C36052684FF4E0636A
:100B500003EAD20202610448006800F0070008605E
:100B60007047000000100240002002400448054980
:100B700000684968044AC1F30221515CC8407047CB
:100B80001C000020001002402037000804480549DE
:100B900000684968044AC1F3C221515CC8407047EB
:100BA0001C000020001002402037000812A185B070
:100BB0000FC98DE80F0014A0144A00680490516812
:100BC000134801F00C03042B10D0082B0ED1C1F3F5
:100BD0008343C9031DF803000AD5516804AAC1F371
:100BE0004041515C0A4A5043B0FBF1F005B07047F8
:100BF00008494843FAE7000002030405060708090C
:100C00000A0B0C0D0E0F1010010200000010024024
:100C100000127A0000093D002DE9F84F040070D061
:100C20002078C04DC00749D06868C0F38100012812
:100C300007D06868C0F38100022809D16868C00342
:100C400006D52868800339D560680028E7D035E0EC
:100C50006068B0F5803F0BD010B1B0F5A02F11D077
:100C6000286820F480302860286820F4802002E082
:100C7000286840F480302860606890B1FFF702FE79
:100C800006460AE0286840F480202860F0E700BFAC
:100C9000FFF7F8FD801B642873D828688003F7D518
:100CA0000CE0FFF7EFFD064605E000BFFFF7EAFDA9
:100CB000801B6428F0D828688003F7D420789A4EE7
:100CC00080074FF001094FF0000839D5686810F02F
:100CD0000C0F07D06868C0F38100022809D168684A
:100CE000C00306D42868800714D52069012808D1DC
:100CF00010E02069B0B1C6F80090FFF7C3FD0746C9
:100D000005E00AE1FFF7BEFDC01B0228C4D8286831
:100D10008007F7D52868616920F0F80040EAC10033
:100D200028600DE0C6F80080FFF7ACFD074604E040
:100D3000FFF7A8FDC01B022823D828688007F7D436
:100D4000207800072CD57948A169D9B1C0F8009066
:100D5000FFF798FD074604E0FFF794FDC01B02284B
:100D60000FD8686A8007F7D571484FF4FA510068C8
:100D7000B0FBF1F0009000BF0098411E0091FAD244
:100D80000EE080E0C0F80080FFF77CFD074604E03D
:100D9000FFF778FDC01B022875D8686A8007F7D472
:100DA0002078400760D5E8690027C00008D4E869CA
:100DB00040F08050E861E869012700F08050009021
:100DC0005C480168C90513D40168834641F4807109
:100DD0000160FFF757FD824606E000BFFFF752FDB6
:100DE000A0EB0A0064284ED8DBF80000C005F5D55A
:100DF000E06801280AD008B1052813D0286A20F03D
:100E000001002862286A20F0040002E0286A40F00D
:100E100001002862E06841F2883B98B1FFF732FD9B
:100E200082460BE0286A40F004002862EEE700BF2B
:100E3000FFF728FDA0EB0A0159455AD8286A800718
:100E4000F6D50CE0FFF71EFD824605E0FFF71AFD20
:100E5000A0EB0A0159454CD8286A8007F6D41FB187
:100E6000E86920F08050E861E06988B36968C1F3FF
:100E70008101022944D00228C6F8608004D0FFF71F
:100E800001FD044638E034E0FFF7FCFC074604E0CF
:100E9000FFF7F8FCC01B02282BD828688001F7D484
:100EA000206AB0F5803F05D16868A16820F4003061
:100EB00008436860D4E908010843696821F47411A3
:100EC00008436860C6F86090FFF7DCFC044606E063
:100ED00025E000BFFFF7D6FC001B022809D82868D0
:100EE0008001F7D51BE000BFFFF7CCFC001B0228F8
:100EF00002D90320BDE8F88F28688001F4D40EE001
:100F00000128F7D06868226A00F48031914204D148
:100F1000616A00F47010884201D00120EAE70020E5
:100F2000E8E7000000100240000042428004424214
:100F30001C00002000700040704770B5040009D00C
:100F4000606A002540B125616561A56294F8510091
:100F500040B10CE0012070BD6068B0F5827FF4D034
:100F6000E561F2E784F85050204600F03FF8022097
:100F700084F851002068016821F040010160A088D8
:100F8000218900F4827001F404410843A18901F42D
:100F900000610843217C01F002010843217D01F03A
:100FA00001010843218B01F400710843217F01F006
:100FB0003801084394F8201001F080010843218D86
:100FC00001F40051084321680860A069042101EA86
:100FD0001040216848602068C16921F40061C16146
:100FE0006565012084F85100002070BD70B586B0A1
:100FF00000250646009501950295039500681A495B
:1010000088422ED11949886940F4805088618869E6
:1010100000F480500490886940F004008861886979
:10102000694600F004000490A02000900220019086
:10103000032003900E48FFF727FB0F4C0D4820605C
:101040001020C4E901058020C4E903056561A5619C
:101050002046E561FFF7A0FA08B1FFF763F9B46431
:10106000666206B070BD0000003001400010024012
:1010700000080140300002405C0400202DE9F041EE
:10108000044690F850000026012809D0012784F872
:10109000507094F851000025012804D002264EE03B
:1010A0000220BDE8F08189B182B1032084F85100AB
:1010B00065652163A286E286A56365642564A587CC
:1010C000E587A068B0F5004F02D00BE0012636E0BE
:1010D0002068016821F0400101602068016841F446
:1010E00080410160A16C1848C862A16C17488862F1
:1010F000A16C17480863A06C4563E38E2268216BDE
:101100000C32A06CFFF776FA38B1606D40F0100039
:101110006065012684F8517011E020680168490675
:1011200003D4016841F0400101602068416841F04A
:10113000200141602068416841F00201416084F86B
:1011400050503046ADE70000991A0008A31A000875
:10115000771A0008704770477047704710B5040051
:1011600003D094F83D0010B107E0012010BD00202D
:1011700084F83C00204600F01EF8022084F83D0070
:10118000211D206800F0E4FD012084F8460084F869
:101190003E0084F83F0084F8400084F8410084F861
:1011A000420084F8430084F8440084F8450084F841
:1011B0003D00002010BD704790F83D10012901D07E
:1011C00001207047022180F83D100168CA6842F092
:1011D0000102CA6000680B49884208D0B0F1804F14
:1011E00005D00949884202D00849884204D1816863
:1011F00001F00701062903D0016841F001010160F7
:1012000000207047002C014000040040000800400E
:10121000704770B50446006801694FF00005C94386
:10122000890715D4C168C943890711D4E91E016132
:1012300001202077206880698007204602D0FFF7D0
:10124000E7FF04E000F098F8204600F096F82577D4
:1012500020680169C943490717D4C168C9434907D0
:1012600013D46FF0040101610220207720688069A7
:1012700010F4407F204602D0FFF7CAFF04E000F0E0
:101280007BF8204600F079F8257720680169C9438A
:10129000090716D4C168C943090712D46FF00801C1
:1012A0000161042020772068C0698007204602D0B1
:1012B000FFF7AEFF04E000F05FF8204600F05DF8B5
:1012C000257720680169C943C90617D4C168C94395
:1012D000C90613D46FF0100101610820207720683F
:1012E000C06910F4407F204602D0FFF791FF04E070
:1012F00000F042F8204600F040F8257720680169A8
:10130000C943C90708D1C168C943C90704D1891EA7
:101310000161204600F032F820680169C9430906DE
:1013200009D4C168C943090605D46FF08001016181
:101330002046FFF711FF20680169C943490609D417
:10134000C168C943490605D46FF0400101612046D8
:1013500000F01EF820680169C94389060BD4C168F2
:10136000C943890607D46FF0200101612046BDE81A
:101370007040FFF7F2BE70BD7047704700680349C8
:10138000884201D1FFF784BA70470000002C014069
:101390007047704770B5026804461068D168536999
:1013A00010F00F0F53D003F0010501F490762E4397
:1013B0005FD0C20705D0CA0503D5E26B42F0010237
:1013C000E263420705D5DA0703D0E26B42F002027E
:1013D000E263820705D5DA0703D0E26B42F004022C
:1013E000E263020707D501F020022A4303D0E26B33
:1013F00042F00802E263E26B002A34D0800604D592
:10140000880602D5204600F0EFFC20684069E16BB9
:10141000C0F3801001F008010143204624D000F001
:10142000D5FC2068416949061AD5416921F040017F
:101430004161606BA0B12D494163606BFEF7B6FF5F
:10144000002810D0606B416BBDE8704008478306F0
:101450000FD58B060DD52046BDE8704000F0C4BC0A
:101460002046FFF796FF70BDFFF793FF0020E06373
:1014700070BD03062BD50B0629D594F83900212819
:10148000F6D1A068B0F5805F01D12069B0B1206AC3
:10149000411C2162216800784860E08C401E0004F5
:1014A000000CE084E4D12068C16821F08001C160B3
:1014B0002068C16841F04001C16070BD206A0088A9
:1014C000C0F308005060206A801C2062E5E74006F7
:1014D000F3D54806F1D5D168204621F04001D1600E
:1014E000202184F8391000F058F970BDBD1D0008A6
:1014F00070B5040004D094F83900002510B106E05E
:10150000012070BD84F83850204600F023F82420D4
:1015100084F839002068C16821F40051C160204678
:1015200000F0A8FC2068016921F490410161206865
:10153000416921F02A0141612068C16841F40051EC
:10154000C160E563202084F8390084F83A00002067
:1015500070BD000070B586B0002400940194029420
:1015600003942E4E03682E49022003222D4DB342D0
:1015700026D18B6943F480438B618B6903F48043EC
:1015800004938B6943F004038B618969039201F032
:10159000040104910102CDE9001069462846FFF7D5
:1015A00073F82815CDE90004694628460294FFF730
:1015B0006BF8002205212520FFF7F0F9252028E00F
:1015C000194EB34227D1CB6943F40033CB61CB69C9
:1015D00003F4003304938B6943F004038B6189693E
:1015E000039201F0040104910421CDE90010694641
:1015F0002846FFF749F80820CDE900046946284647
:101600000294FFF741F8002205212620FFF7C6F9D2
:101610002620FFF7B5F906B070BD00000038014084
:1016200000100240000801400044004090F83A30A9
:10163000202B22D1F9B1F2B190F83830012B1CD017
:1016400081628285C2850021C163222280F83A200E
:1016500080F838100168CA6842F48072CA60016874
:101660004A6942F001024A610068C16841F0200104
:10167000C1600020704701207047022070470000C1
:1016800010B504460068134988420DD1124800780D
:1016900001F046FC11496FF0200009680860012242
:1016A0000D490E48FFF7C2FF0D49206888420FD14F
:1016B00009494FF47A73012220310A4800F014F8E6
:1016C00005490122BDE8104020310648FFF7AEBFB2
:1016D00010BD00000038014070010020A00400206F
:1016E00000440040E00400202DE9F843044690F84F
:1016F00039001F4616460D4620284CD1C5B1BEB153
:1017000094F83800012846D0012084F838004FF0C2
:101710000008C4F83C80212084F83900FFF7B2F8B3
:10172000A6848146E684A068B0F5805F03D004E01B
:101730000120BDE8F883206928B12E465FF000053E
:1017400084F838800EE00026FAE78021204600F079
:10175000EDFBA0B9AEB116F8010B21684860E08C32
:10176000401EE084E08C4B464FF0000200970028BA
:10177000EBD14FF04001204600F0D8FB30B1032000
:10178000D7E735F8020BC0F30800E6E7202084F81D
:1017900039000020CDE70220CBE77047FEE70000CC
:1017A000094808B5416941F00101416140690022E1
:1017B00000F00100009005210D20FFF7EFF8BDE8D3
:1017C00008400D20FFF7DCB80010024010B59CB0B7
:1017D0001C2216496846FEF701FD0021684601F00B
:1017E000C4F8134C11491C2220601C3107A8FEF7D5
:1017F000F5FC002107A801F0B8F80C4960601C2234
:1018000038310EA8FEF7EAFC00210EA801F0ADF871
:101810000649A0601C22543115A8FEF7DFFC002108
:1018200015A801F0A2F8E0601CB010BDA0360008B9
:10183000000000202DE9F04186B000242B480094E0
:10184000019402940394816941F0200181618169CE
:1018500001F020010491816941F0040181618169F5
:1018600001F004010491816941F0080181618069FE
:101870001F4F00F008000490012241F60201384693
:10188000FEF7FAFF0022B9153846FEF7F5FFDFF83C
:1018900064800022C0214046FEF7EEFF41F60210B0
:1018A00001250226CDE90005CDE902466946384604
:1018B000FEF7EAFE062000900F48CDE901046946D4
:1018C0004046FEF7E1FE28038DE8310069464046B8
:1018D000FEF7DAFEC020CDE90005CDE902466946F3
:1018E0004046FEF7D1FE06B0BDE8F0810010024090
:1018F00000080140000C014000001110104810B514
:101900000E4901604FF48271416000210222816022
:10191000C0E9031201224261520282611022C0E931
:101920000721416281620A21C162FFF706FB00289C
:1019300003D0BDE81040FEF7F5BC10BD00300140FB
:10194000040400200C4810B50A4901604FF4E1314D
:101950004160002181600C22C160C0E904128161F4
:10196000C161FFF7C5FD002803D0BDE81040FEF7B8
:10197000D9BC10BD00380140A00400200C4810B5AF
:101980000A4901604FF4E1314160002181600C227D
:10199000C160C0E904128161C161FFF7A9FD00289F
:1019A00003D0BDE81040FEF7BDBC10BD00440040B0
:1019B000E0040020FEE77047F8B50446002500F07B
:1019C0008FFE802000F062FE00F0ACFE204600F0AA
:1019D0005DFE00F0A7FE00F097FE00244FF6FF76B4
:1019E0000A2000F0B6FF00F07BFE812000F04EFEE2
:1019F00000F098FE90B9012400F024FE8DF800005C
:101A000000F0CCFD00F01EFE8DF8010000F0C6FDD8
:101A100000F018FE8DF8020000F002FE00F074FEE7
:101A20006D1CEDB20A2D02D300F06EFE0DE0002C0D
:101A3000D6D002216846FEF776FC9DF80210884257
:101A400003D1BDF8000040BAF8BD3046F8BDAFF391
:101A5000008010B5FE2400F043FE802000F016FE4A
:101A600000F060FE204600F011FE00F05BFEBDE8D5
:101A7000104000F049BE10B5406A01684A6822F083
:101A800003024A60416D41F010014165012180F877
:101A90005110FFF751FA10BD10B5406AFFF75BFB1C
:101AA00010BD38B50546446AFEF7ECFE02462868CC
:101AB0000068800623D42068416821F0200141603D
:101AC0002068416821F0020141606421204600F055
:101AD0001AF818B1606D40F020006065A068002120
:101AE00018B92068C26880680090E186012084F8F7
:101AF0005100606D18B12046FFF71EFA38BD204630
:101B0000FFF728FB38BD38B50B460092044600228B
:101B1000802100F009F8002804D0606D40F020001A
:101B20006065032038BD00002DE9F8431E4691464C
:101B300088460446089DFEF7A5FE401B351AFEF7B1
:101B4000A1FE074625480068C0F3CB30684338E063
:101B5000701C37D0FEF796FEC01BA84203D215B109
:101B6000009860B32CE02068416821F0E0014160FA
:101B70006068B0F5827F0BD1A068B0F5004F02D04D
:101B8000B0F5806F04D12068016821F04001016048
:101B9000A06AB0F5005F09D12068016821F4005106
:101BA00001602068016841F400510160012084F85F
:101BB0005100002084F850000320BDE8F883002580
:101BC000401E00902068816838EA010004D000219E
:101BD0004945BDD10020F0E70121F9E71C000020B4
:101BE0002DE9F00F0022DFF85CA0012413464FF02E
:101BF000F0090AF11805602703EB4306002106EB04
:101C00000A0C00201CF80160C0F1070804FA08F86B
:101C100016EA080F02D005F8029000E0AF54401C0D
:101C2000521C0828F0D3491C0329EAD35B1C082B5B
:101C3000E2D3BDE8F00F0349C02218310248FFF794
:101C40001DBA0000980000200404002010B5082BE5
:101C500006D203EB4304034B1955E11848708A7010
:101C600010BD000098000020064D4FF400644FF4B2
:101C7000FA7621462846FEF7F7FD304600F069FE69
:101C8000F7E7000000080140012000F062FEFBE7DA
:101C90000A2442F2107500BFFEF772FB90FBF4F1CC
:101CA000652000F0FDFDFEF757FB90FBF4F1662088
:101CB00000F0F6FD284600F04CFEEDE701F0D2FA08
:101CC000012000F046FEF9E710B5502080F311889E
:101CD000BFF34F8FBFF36F8F01F01CFC18B10449A5
:101CE0004FF080500860002080F3118810BD000084
:101CF00004ED00E030B58FB028216846FEF787FA82
:101D000014210AA8FEF783FA01210804CDE9001086
:101D10000024029402250491CDE907504FF440209D
:101D200009906846FEF778FF0F20CDE90A056802A2
:101D3000CDE90C4001210AA80E94FEF761FE0FB018
:101D400030BD70470148FFF764BA0000200500204D
:101D5000F0B50268164B174C174D4FF0804798426C
:101D600005D0B84203D0A04201D0A84203D122F04E
:101D700070064A683243984205D0B84203D0A04268
:101D800001D0A84203D122F44074CA6822434C69AE
:101D900022F08002224302608A68C2620A6882627C
:101DA000984201D10969016301214161F0BD000040
:101DB000002C0140000400400008004010B5406ABB
:101DC0000021C185C184FFF7E4FA10BD0168CA682B
:101DD00022F49072CA6001684A6922F001024A61E5
:101DE000202180F83A10704710B590F83A10222957
:101DF00001D0022010BD82684FF480539A4201D175
:101E0000016921B1816A9A421BD04AB10AE0026895
:101E1000816A5268C2F308020A80816A891C08E05C
:101E2000026972B10268526802F07F020A70816A28
:101E3000491C8162C18D491E0904090CC18503D06A
:101E400016E002685268F1E70168CA6822F02002D1
:101E5000CA600168CA6822F48072CA6001684A696F
:101E600022F001024A61202180F83A10FFF708FCB5
:101E7000002010BD70B5044600680169E26821F4D5
:101E80004051114301612169A06808436169084319
:101E90002168CA6841F20C639A430243CA60206811
:101EA0004169A26921F44071114341611E492068D2
:101EB000884202D1FEF76AFE01E0FEF757FE00EB12
:101EC000C00101EB0012606864218000B2FBF0F3F6
:101ED000B3FBF1F36FF018067343B2FBF0F5B2FBFE
:101EE000F0F605EB8305322303EB0515B5FBF1F5A1
:101EF000B6FBF1F605F0F00505EB0615B2FBF0F6C2
:101F0000B2FBF0F0B0FBF1F06FF01802504306EBBB
:101F1000800003EB0010B0FBF1F0216800F00F002F
:101F20002844886070BD0000003801402DE9F04170
:101F3000984617460E460446069D1DE0681C1BD0B9
:101F40002DB1FEF79FFCA0EB0800A84214D9206831
:101F5000C16821F4D071C1602068416921F001019C
:101F60004161202084F8390084F83A00002084F888
:101F700038000320BDE8F0812068006836EA0000E0
:101F800004D00020B842D9D00020F3E70120F9E7BF
:101F90000148FFF7FFB90000A00400200148FFF747
:101FA000F9B90000E0040020FEE700000FB4054B83
:101FB00010B503A9044A029800F028F810BC5DF897
:101FC00014FB000067250008940000200907090E93
:101FD000002804DB00F1E02080F80014704700F0D6
:101FE0000F0000F1E02080F8141D704702E008C8DF
:101FF000121F08C1002AFAD170477047002001E083
:1020000001C1121F002AFBD1704700002DE9FF4FCC
:102010008DB09B460F460446002606E025280BD0CF
:102020005A460F999047641C761C20780028F5D1F9
:1020300011B03046BDE8F08F0025A846012298492E
:1020400000E0054314F8013F203B02FA03F0084288
:10205000F7D120782E2817D114F8010F45F0040588
:102060002A280ED06FF02F022078A0F13001092924
:102070000AD808EB880102EB410100EB0108641C5F
:10208000F2E757F8048B641C20786C280DD004DC30
:102090004C2812D06A2811D104E074280DD07A2877
:1020A0000CD10AE045F4001507E0617845F480158D
:1020B000814202D1641C05F58015641C2278692ACE
:1020C00045D008DC002AB3D0582A69D0632A10D042
:1020D000642A08D13BE0702A67D0732A13D0752A8E
:1020E0005CD0782A5CD010465A460F999047761CEF
:1020F000D3E017F8040B8DF8000000208DF80100E4
:10210000E946012003E057F8049B4FF0FF306907D0
:102110004FF0000501D40AE06D1C45450DDA8542FB
:10212000FADB19F805100029F6D106E06D1C85428E
:10213000FCDB19F805100029F8D12E4404E019F849
:10214000010B5A460F9990476D1EF8D2A5E00A2060
:102150000021CDE90801C5F3025002280DD001CFBE
:10216000C117031E71F100030DDA4FF0000CD0EB24
:102170000C006CEB01012D2308E0FF1D27F0070781
:10218000F7E80201EDE72B0504D52B238DF8283065
:1021900001233BE0EB0739D02023F7E70A2000E0DA
:1021A00010200021CDE9080107E01020002145F0B2
:1021B0000405CDE908014FF00808C5F302500228D4
:1021C0000FD001CF00214FF0000A2B071FD5702A36
:1021D0000DD0DDE908C38CF0100C5CEA030C0CD0C8
:1021E00015E0FF1D27F00707F7E80201EBE74022A3
:1021F0008DF828204FF0010A0BE050EA010306D0C9
:1022000030238DF828308DF8292002239A46582A49
:1022100004D024A20DF120090B9209E026A2F9E7CF
:10222000DDE90823FDF7FEFF0B9B9B5C09F8013DF0
:1022300050EA0102F4D1ADEB0900203008906807A4
:1022400001D44FF001080899884502DDA8EB010090
:1022500000E000208046002506E00AA85A46405DBE
:102260000F9990476D1C761C5545F6DB04E0302035
:102270005A460F999047761CB8F10001A8F1010861
:10228000F5DC05E019F8010B5A460F999047761CCA
:102290000899481E08900029F4DC641CC5E600007B
:1022A000092801003031323334353637383961622C
:1022B00063646566000000003031323334353637F0
:1022C00038394142434445460000000010B5002122
:1022D000142000F07FFA0021152000F09FFA002161
:1022E000162000F0DDFA0021172000F0D9FA0022B4
:1022F0001146182000F0B2FA00221146192000F011
:10230000ADFA01211A2000F0CBFA0B21652000F074
:10231000C7FA1621BDE81040662000F0C1BA017866
:102320000A02417811430A028178C078114340EAD9
:10233000012070472DE9F84F3949814601EB090624
:10234000F0780124374B092828D2DFE800F0051582
:10235000191D26292B2764001978002031B101218D
:1023600000F0C2FDC2B20321002012E0002100F003
:10237000BBFDC2B21C70F6E7BDE8F84F00F020BB11
:1023800000220321022004E0B079D870002203214A
:102390000846BDE8F84F00F0E3BF5C70BDE8F88F79
:1023A0009C70FBE770793179002540EA01272FE026
:1023B0001B4809EB05010844017A407A741900EBC7
:1023C000012014F8068F1FFA80FBA078E17894F8BA
:1023D00001A001EB002080B2009000F0DCF80021A9
:1023E000114A05E012F811C0C44503D0491CC9B216
:1023F0008142F7D302EB41004178514504D1211DC0
:102400004046009A00F012F805EB0B00001D85B263
:10241000BD42CDD3C2E7BDE8F84FFFF757BF00007C
:102420005812002084000020283700082DE9F041D0
:102430000B46A0F1140100240125092916D2DFE87A
:1024400001F0050B1932393C434A4D00BDE8F0411B
:102450001146184600F045B81846114600F04CFAEF
:102460000146152000F0DAF92BE02846BDE8F0819E
:102470002046FBE71846114600F040FA8046002748
:10248000C0F38706324611463B460846FFF7DEFB9F
:102490007F1CFFB2082FF5D3FFF7A2FB41461620A1
:1024A00000F0FEF90DE01846114600F027FA01464B
:1024B0001720F5E71946182001E01946192000F009
:1024C000CDF90128D4D1D0E71846114600F016FA0C
:1024D00001461A20E4E719461B20F0E719461C20A4
:1024E000EDE710B500F006FA040039D000230A2207
:1024F00019461846FFF7AAFB0A22012311460020BD
:10250000FFF7A4FB002202230A211046FFF79EFBDF
:102510000A21032300220846FFF798FB0022042328
:1025200011460A20FFF792FB05231A4600210A20D4
:10253000FFF78CFB06230A2200210520FFF786FB0C
:102540000522072311461046FFF780FBFFF748FBE3
:102550002146142000F03EF9012800D0002010BDD3
:10256000FDF7B4FEF4E738B504468DF8000069467F
:102570000320ABBE204638BD034610B500200246FE
:1025800006E000BF13F8014B521C2044C0B292B2C7
:102590008A42F7D310BD0B20704700002DE9F041AF
:1025A000074D80242C6000F035F82F1F40263E6038
:1025B00000F030F82E6000F02DF83C60BDE8F081AE
:1025C000140C0140114800B5816985B041F0040147
:1025D0008161816901F004010491816941F0040184
:1025E00081618069694600F004000490C020009079
:1025F0001120019000200290032003900448FEF770
:1026000043F800F081F805B000BD00000010024062
:10261000000C01400020401CC0B20A28FBD37047C8
:1026200070B5074C80202060FFF7F4FF402525603F
:10263000FFF7F0FF201D0560BDE87040FFF7EABF1F
:10264000100C01402DE9F04700240F4FDFF83880CF
:102650002546A8F10808402607F104096006040E83
:102660003E60FFF7D7FFD8F80000000601D5641CD4
:10267000E4B2C9F80060FFF7CDFF6D1CEDB2082D84
:10268000ECD32046BDE8F087100C01402DE9F0475F
:10269000DFF848900024054640274FF08008A9F154
:1026A00004062806404601D5306001E0C9F8000064
:1026B000FFF7B0FF3760FFF7ADFFC9F80070072CD8
:1026C00001D1C6F800806806050EFFF7A3FF641C61
:1026D000E4B2082CE5D3BDE8F0870000140C0140FB
:1026E00070B508488025056040240460FFF792FF1C
:1026F000044E361D3560FFF78DFF3460BDE8704035
:10270000FFF788BF100C014070B5054880240460B5
:10271000034D40202D1F2860FFF77CFF2C6070BD0B
:10272000140C014070B50C4C80202060FFF772FF44
:1027300040252560FFF76EFF07480838006800064F
:1027400001D5012400E000240348001D0560FFF7C7
:1027500061FF204670BD0000100C0140FEF7A0F89C
:10276000FFF7C8FAFFF766F8FFF71AF8FFF7C6F8A1
:10277000FFF7E8F8FFF702F9012210491048FEF7C9
:1027800055FF0E49012220310E48FEF74FFF00F0A1
:1027900057FDFFF717FF1420FDF764FFFFF757F908
:1027A0001420FDF75FFFFDF791FDFFF70FF800F034
:1027B000D7F800BF00F056FDFCE7000070010020D4
:1027C000A0040020E004002001460020842900D05D
:1027D000C81C704710B5104A0C46014612780020FC
:1027E000012A14D000F080FB012100F07DFB0021C4
:1027F00000F07AFB012100F077FB54B15FF001019A
:1028000000F072FB02460321072000F0A9FD012021
:1028100010BD0021F4E700009000002010B50E4A22
:102820000C46014612780020012A12D000F05CFB11
:10283000042100F059FB002100F056FB012100F0BB
:1028400053FB214600F050FB02460321072000F015
:1028500087FD012010BD00009000002070B51446D7
:102860000E4A0D46014612780020012A13D000F0CE
:102870003BFB032100F038FB210A00F035FBE1B2FD
:1028800000F032FB2246294600F020FB02460321DD
:10289000072000F065FD012070BD000090000020C1
:1028A00010B5134A0C46014612780020012A1DD0AB
:1028B00000F01AFB022100F017FB002100F014FBCE
:1028C000042100F011FB210E00F00EFBC4F30741C0
:1028D00000F00AFBC4F3072100F006FBE1B200F0B0
:1028E00003FB02460321072000F03AFD012010BD42
:1028F000900000200078704700787047FFF70FBD08
:1029000030B538B131B1884202D98C18844212D224
:10291000002305E0002030BDCD5CC5545B1C9BB29C
:102920009342F9D330BD8B1813F8014C8318521E13
:1029300003F8014C92B2002AF5D130BD00210028E5
:1029400006D000E0491C10F8012B002AFAD10846F5
:10295000704710B500B9012000F0E0FB002010BD69
:1029600010B500F001FC002010BD7FB50D460446F7
:102970004169B0F9080081B1A16971B1FFF724FF85
:10298000D4E905128DE80700D4E900102B4622692E
:1029900000F095FD039004B070BDFFF715FF03A98B
:1029A000CDE90001208A2B4682B2D4E9001000F064
:1029B00059FD012801D00020EDE70398EBE7000066
:1029C00010B5002422A0FFF7B9FF82B220A1204653
:1029D00000F07CFAC4B220A0FFF7B0FF82B21EA1C3
:1029E000204600F073FAC4B220A0FFF7A7FF82B21E
:1029F0001EA1204600F06AFAC4B21EA0FFF79EFF97
:102A000082B21CA1204600F061FAC4B21BA0FFF7FD
:102A100095FF82B219A1204600F058FAC4B219A05D
:102A2000FFF78CFF82B217A1204600F04FFAC4B224
:102A300015A0FFF783FF82B213A1204600F046FAEB
:102A4000C2B20321BDE81040012000F089BC0000A3
:102A50007B2270223A2200006868376C636B377003
:102A6000746C396A6165676100000000222C22766F
:102A7000223A2200312E302E30000000222C226D0E
:102A8000223A0000320000007D0000002DE9F041F4
:102A9000184C0F46054666692068001D00F07AFA5A
:102AA00038B9206890F82C1001208840A169814332
:102AB000A161681C07D137B12168BDE8F0410E481B
:102AC000091D00F0ABBA20683544B5424560216865
:102AD00005D2A068BDE8F041091D00F087BA606822
:102AE000091D00F083FA206B854200D22563BDE802
:102AF000F081000020000020440600202DE9F04174
:102B0000054600F097FA2E4C2069401C2061206891
:102B10002C4F10B1E06940B32DE0256020690128F9
:102B200029D1002606EB860007EB800000F050FA62
:102B3000761C072EF6D323488C3000F049FA214842
:102B4000A03000F045FA1F48B43000F041FA1D48AB
:102B5000C83000F03DFA1B48DC3000F039FA194863
:102B60008C3060601430A06005E02068E96AC06ABB
:102B7000884200D82560E06A401CE062E96A0120D2
:102B8000A26988401043A06101EB810007EB80003F
:102B9000291D00F043FA00F06DFAE06900280CD01E
:102BA0002068E96AC06A884207D207494FF080501E
:102BB0000860BFF34F8FBFF36F8FBDE8F081000057
:102BC000200000206805002004ED00E010B5044658
:102BD00090F8510058B101280CD002280FD0502095
:102BE00080F31188BFF34F8FBFF36F8FFEE7206B29
:102BF00000F054FA2046BDE8104000F04FBA10BD76
:102C000010484FF44061420706D0C01D0D4920F026
:102C10000700411AC1F540610B4A00230144C2E993
:102C200000030839103A21F0070111604B600B6076
:102C30000B1AC0E9001393604FF000405360D0605E
:102C400070470000580600206C000020144E154C00
:102C5000A6F1C8074FF08058DFF84C9012E000BF93
:102C600000F0E8F9F068C568281D00F093F92069C4
:102C7000401E2061E068401EE06000F0FBF928463D
:102C8000FFF7A4FFE0680028EAD138680128F9D9E5
:102C9000C9F80080BFF34F8FBFF36F8FF2E70000DA
:102CA000300600202000002004ED00E02DE9F04770
:102CB0009A46DDE9098481466FF00303206B03EB3C
:102CC00082021044089D20F00706700707D05020AC
:102CD00080F31188BFF34F8FBFF36F8FFEE7231888
:102CE0000A5C83F834200A5C12B1401C1028F6D329
:102CF000002784F84370072D00D30625E562C4E958
:102D00001157201D00F06FF904F1180000F06BF965
:102D10002461C5F107006462A061E76484F8507023
:102D200052464946304600F0BFF82060B8F1000F27
:102D300001D0C8F80040BDE8F087000030B5114967
:102D400000E011460A688242FBD34B685C1884425B
:102D500003D1406818444860084643681C189442F0
:102D600009D1084C103C2468A24209D052681A4488
:102D700042600A6812680260814200D0086030BD7B
:102D80000460F9E76C00002006484168096829B131
:102D90004168C968C9684968016370474FF0FF31ED
:102DA000FAE700002000002008484068401C4FF06F
:102DB000500080F3118804D0BFF34F8FBFF36F8FA3
:102DC000FEE7BFF34F8FBFF36F8FFEE77400002065
:102DD0002DE9F0410546002700F0FCF9314E30683E
:102DE00008B9FFF70DFFF06805424BD1C5B30835B0
:102DF00068070ED005F00700C0F108000544680719
:102E000007D0502080F31188BFF34F8FBFF36F8F2F
:102E1000FEE72DB37068854234D822481030014651
:102E20000C6801E020460C466168A94202D2216884
:102E30000029F7D131688C4224D0076821680160ED
:102E400060680837411B10290FD96019420708D064
:102E5000502080F31188BFF34F8FBFF36F8FFEE7D1
:102E600010E041606560FFF769FF61687068401AB3
:102E70007060B268904200D2B060F06801430020F8
:102E8000C4E9000100F0AAFB780707D0502080F3C6
:102E90001188BFF34F8FBFF36F8FFEE73846BDE851
:102EA000F08100005C00002010B5031F4FF080741B
:102EB0001C601B1F21F001011960191F024B0B60E0
:102EC000143940380A6010BDA92D000870B50446B9
:102ED000044815462044801DFFF712FD601980B29A
:102EE00070BD00008E120020024A0244401C917105
:102EF00080B270478E1200200749D1E901329A4210
:102F000008D00648824201D3173888608A6812F8D0
:102F1000010B8A6070470000840000208E120020A0
:102F20000B4910B50B680B490A689C1A012C0DD08F
:102F30009A4202D9D31A172B08D2074B9A4202D3CE
:102F4000A3F117020A6002F8010B0A6010BD00002D
:102F50008C000020880000208E12002001B50C4853
:102F600082B0006801684168009101684168009181
:102F70000168416800910168416800916FF040016B
:102F800001606423012202A90148FEF7ADFB0EBDDA
:102F9000A0040020D0E9013201699A60D0E9012340
:102FA0005A604A68824201D182684A600022026106
:102FB0000868401E0860086870470000034B036003
:102FC00003F154000860802010607047B0010020B9
:102FD00000F108014FF0FF32C0E90112C160016148
:102FE00000210160704700210161704730B50B6816
:102FF0005A1C02D000F1080202E0026904E02246F5
:10300000546825689D42FAD953684B6099608A607C
:10301000516008610168491C016030BD42684A6026
:1030200093688B6093685960916008610168491CDE
:1030300001607047502080F31188BFF34F8FBFF3BA
:103040006F8F0A494868401C486001280CD1084825
:10305000006810F0FF0F07D0502080F31188BFF3F5
:103060004F8FBFF36F8FFEE77047000074000020A2
:1030700004ED00E00849486828B1401E486001D1CD
:1030800080F311887047502080F31188BFF34F8F71
:10309000BFF36F8FFEE700007400002070B50028BA
:1030A00027D0144DA0F108046168E868014207D1F7
:1030B000502080F31188BFF34F8FBFF36F8FFEE76F
:1030C00022683AB1502080F31188BFF34F8FBFF3CD
:1030D0006F8FFEE78143616000F07CF8606869688B
:1030E000084468602046FFF729FEBDE8704000F004
:1030F00075BA70BD5C0000204FF0E0200021016136
:10310000816105494FF47A720968B1FBF2F1491EF9
:1031100041610721016170471C00002010B50200C9
:1031200014D00F48806B38B1502080F31188BFF362
:103130004F8FBFF36F8FFEE700F04CF80021104671
:10314000FFF7A4FC00F04AFA002807D105494FF028
:1031500080500860BFF34F8FBFF36F8F10BD00002A
:103160002000002004ED00E010B586B00024039498
:1031700005AA04A903A80494FFF720FFDDE90301D1
:103180000094CDE9011000230EA11048059A00F02B
:1031900096F90F490028486311D0502080F3118818
:1031A000BFF34F8FBFF36F8F4FF0FF3008630120E5
:1031B000C8614C6106B0BDE8104000F0FFB806B031
:1031C00010BD000049444C45000000004D2C000893
:1031D000200000200248816B491C81637047000079
:1031E000200000201448816B11B101214162704719
:1031F000002141628169B1FA81F1C1F11F0101EB46
:1032000081020E4951F822306BB101EB820101F1CC
:1032100008034A6852684A609A4201D152684A607B
:10322000D16801607047502080F31188BFF34F8F41
:10323000BFF36F8FFEE7000020000020680500202C
:10324000054904480860054908600549FF200870E1
:103250007047000077120020880000208C000020BA
:10326000870000202DE9F0470024314E314D06E063
:10327000FFF742FE014628883154401C28802888E8
:103280001F2803D200F08EF80028F1D128880728E3
:103290004CD33BE0315D552901D0641C06E0371961
:1032A0007978AA29F9D1B97811B1A41CA4B22DE07A
:1032B00039797A790902C91D11441FFA81F8B8F1E8
:1032C000260F01D9E41CF1E7404523DBA8F10109F1
:1032D0001FFA89F13846FFF74FF9A04408EB0601C1
:1032E0008A4611F8011C88420BD01FFA89F1384632
:1032F000FFF742F91AF8012C01460FA0FEF756FE1F
:10330000E0E72046FFF716F81FFA88F42888001B2C
:103310000728BFDA2888001B0204120C2A8005D077
:103320003119BDE8F0470248FFF7EABABDE8F08777
:103330005812002080000020637263206572726F53
:103340007220286372633A307825582020627574A1
:1033500020646174613A30782558290D0A00000014
:1033600070B50F4D55232B70AA236B70A970E870B0
:10337000100A28716A71D21D94B2601E81B228466B
:10338000FFF7FAF8291901F8010C002C07D003E027
:103390002878FFF7E3FD6D1C641EA4B2F8D270BD5F
:1033A0008E1200200448D0E90110814201D0012092
:1033B0007047002070470000840000201CB526499B
:1033C00008780190FF20087008788DF800009DF8BB
:1033D00000009DF8002000F0F000904207D050203F
:1033E00080F31188BFF34F8FBFF36F8FFEE79DF817
:1033F00000001A4B00F0500018700720986005E09C
:103400009DF8002052008DF80020401E9DF80020FD
:103410001206F5D49860032807D0502080F3118855
:10342000BFF34F8FBFF36F8FFEE74FF4407098608C
:10343000019808700A48016841F470010160016850
:1034400041F070410160FFF757FE00205860FCF723
:1034500069FE00201CBD000000E400E074000020B4
:1034600020ED00E02DE9FF5F8346DDE90E879946F8
:1034700016468A469000FFF7ABFC05001CD054208E
:10348000FFF7A6FC040014D00020256384F8510047
:10349000CDE90240CDE900874B46324651465846B9
:1034A000FFF704FC2046FFF729FB012004B0BDE82C
:1034B000F09F2846FFF7F2FD4FF0FF30F6E7F0B53A
:1034C00085B0DDE90B640A9DA6B1DCB154270097F5
:1034D0002663022684F85160002604AFCDE9024637
:1034E000CDE90057FFF7E2FB2046FFF707FB049802
:1034F00005B0F0BD502080F31188BFF34F8FBFF3AC
:103500006F8FFEE7502080F31188BFF34F8FBFF31A
:103510006F8FFEE72DE9F0412E4C0027A06B40B1E4
:10352000206A401C2062606A00B101273846BDE86D
:10353000F0816669761C666113D16068006838B1F5
:10354000502080F31188BFF34F8FBFF36F8FFEE7DA
:103550006068A1686160A060A06A401CA062FFF77B
:1035600013FC206BDFF87080864209D36068006826
:1035700080B16068C068C568686886420DD2206303
:103580002068C06A00EB800158F821000128CAD9E0
:103590000127C8E74FF0FF30F1E7281DFFF7FAFCDD
:1035A000A86A18B105F11800FFF7F4FCE86A0121D8
:1035B000A26981401143A16100EB800108EB810009
:1035C000291DFFF72BFDE86A2168C96A8842CDD31F
:1035D0000127CBE720000020680500202DE9F047F7
:1035E0002C4D00242746A86B38B1FFF723FDA86BAC
:1035F000401EA863A86B40B146E0502080F31188BC
:10360000BFF34F8FBFF36F8FFEE72969224E012072
:10361000D1B3A6F1B40980463068E8B1F068C46857
:1036200004F11800FFF7B6FC201DFFF7B3FCE06AB9
:10363000AA6908FA00F11143A96100EB800109EBC6
:103640008100211DFFF7EAFCE06A2968C96A884207
:10365000E2D3C5F82480DFE70CB1FFF795FB2C6AB5
:1036600044B14646FFF756FF00B16E62641EF9D1C1
:1036700000202862686A38B10849012738070860C5
:10368000BFF34F8FBFF36F8FFFF7F4FC3846BDE8F1
:10369000F0870000200000201C06002004ED00E060
:1036A00048370008691C0008000000000000000006
:1036B000800000000000000000000000403700080B
:1036C000BD1C0008FDFF000000000000800000009D
:1036D000000000000000000054370008911C0008A2
:1036E000FDFF00000000000080000000000000005E
:1036F0000000000060370008891C0008FDFF000082
:103700000000000080000000000000000000000039
:103710000000000000000000010203040607080981
:103720000000000001020304140115041602170230
:10373000180319031A021B031C036502660200002A
:10374000574233530000000064656661756C745421
:1037500061736B0054485F53656E736F72000000B5
:103760004C45445F53686F77000000008C370008B9
:103770000000002098000000EC1F0008243800081A
:103780009800002030160000FC1F00080000000018
:103790000000000000000000000000000100000028
:1037A00010000000000000000024F40000000000F1
:1037B0000000000000000000000000000000000009
:1037C00000000000000000000000000000000000F9
:1037D00000000000000000000000000000000000E9
:1037E00000000000000000000000000000000000D9
:1037F00000000000000000000000000000000000C9
:1038000000000000AAAAAAAA000000000000000010
:1038100000000000000000000000000000000000A8
:0438200000000000A4
:04000005080000ED02
:00000001FF
