:020000040800F2
:100000008015002099010008BB1D00088D1B000809
:10001000B91D00080B05000881250008000000003C
:1000200000000000000000000000000001010008C6
:10003000630500080000000045010008AD2200082B
:10004000B3010008B3010008B3010008B3010008C0
:10005000B3010008B3010008B3010008B3010008B0
:10006000B301000865050008B3010008B3010008EA
:10007000B30100082D050008B3010008B301000812
:10008000B3010008B3010008B3010008B301000880
:10009000B3010008B3010008B3010008B301000870
:1000A000B301000829230008B3010008B3010008C8
:1000B000B3010008B3010008B3010008B301000850
:1000C000B3010008B3010008B3010008B301000840
:1000D000B301000875250008B3010008B30100084A
:1000E000B3010008B3010008B3010008DFF80CD029
:1000F00000F0EAF900480047E52D000880150020CF
:10010000224B19680868B0E8F00F80F30988BFF344
:100110006F8F4FF0000080F311884EF00D0E704786
:100120000000000006480068006880F3088862B696
:1001300061B6BFF34F8FBFF36F8F00DF00BF00BF0B
:1001400008ED00E0EFF30980BFF36F8F0F4B1A68E3
:1001500020E9F00F106008B54FF0500080F31188CF
:10016000BFF34F8FBFF36F8F03F048FD4FF00000D8
:1001700080F31188BDE8084019680868B0E8F00FFE
:1001800080F30988BFF36F8F704700BF38000020ED
:10019000EFF3058070470000064880470648004797
:1001A000FEE7FEE7FEE7FEE7FEE7FEE7FEE7FEE727
:1001B000FEE7FEE727230008ED000008202A04DB05
:1001C000203A21FA02F00021704721FA02F3D040D0
:1001D000C2F12002914008431946704740EA0103EA
:1001E0009B0703D009E008C9121F08C0042AFAD2ED
:1001F00003E011F8013B00F8013B521EF9D27047B1
:10020000D2B201E000F8012B491EFBD27047002258
:10021000F6E710B513460A4604461946FFF7F0FF05
:10022000204610BDF0B480EA0102D40F4200B2EBC8
:10023000410F02D20246084611464A0042D0C30D81
:10024000DDB2C1F3C752AD1A202D35DAC1F3160164
:1002500041F4000204B15242C5F1200602FA06F14F
:100260002A411044B3EBD05F23D0C4B1012DA0EBE1
:10027000C35009DCF0BC4FF0004202EAC352DBB2CB
:1002800000F5000000F0F2B8400000F1807000EBD3
:10029000C350A0F1807040EAD170490009E04908DC
:1002A00041EAC071A0EBC35000F50000400800EB2C
:1002B000C350F0BC00F0D1B86142012202EB410111
:1002C000001BF6E7F0BC704781F00041AAE780F020
:1002D0000040A7E780EA010210B502F000434000A9
:1002E00022D04A001FD0010E01EB1261C0F356006C
:1002F000C2F3560240F4000042F40002A0FB0220C8
:1003000000047F39140400D0401C50EA124001D48C
:100310004000491EC2B20C0604EBD010401C40083D
:10032000802A02D003E0002010BD20F00100002947
:1003300000DA0020184310BD30B480EA010202F058
:10034000004530F0004221F0004013D090B1C30DC1
:10035000D40DC2F31601C0F31600E41A41F40001F3
:1003600040F400027D34914201D3641C00E0490056
:10037000002C02DA30BC002070474FF4000000234C
:10038000914201D3891A034340084FEA4101F7D152
:1003900051B1914202D14FF0004105E002D24FF03D
:1003A000010101E06FF0010103EBC450284430BCAF
:1003B00000F053B8C10F80EAE0700844CA079623E2
:1003C000002100F053B896230022114600F04EB8E9
:1003D00020F00040C10DC0F3160040F400007F295A
:1003E00001DA00207047962903DCC1F19601C8406C
:1003F00070479639884070472DE9F05F0546002028
:1004000092469B4688460646814640241BE0284685
:10041000414647462246FFF7D1FE53465A46C01A88
:10042000914110D311461846224600F05FF82D1A6C
:1004300067EB01084F4622460120002100F056F8E4
:1004400017EB00094E41201EA4F10104DFDC4846F1
:1004500031462A464346BDE8F09F0029A8BF7047B1
:10046000401C490008BF20F00100704710B4B0FAEA
:1004700080FC00FA0CF050EA010404BF10BC704785
:1004800049B1CCF1200421FA04F411FA0CF118BF9F
:10049000012121430843A3EB0C01CB1D4FEA00616E
:1004A0004FEA102042BF002010BC704700EBC35041
:1004B00010440029A4BF10BC7047401C490008BF6D
:1004C00020F0010010BC7047064C074D06E0E068C4
:1004D00040F0010394E8070098471034AC42F6D38B
:1004E000FFF708FE2049000840490008202A04DBE5
:1004F000203A00FA02F1002070479140C2F1200337
:1005000020FA03F3194390407047FEE700200549A5
:1005100060220A54401CC028FBD3C0220149024873
:1005200000F04EBFC8000020FC020020014800F08F
:1005300011B900005403002030B590F84050012458
:10054000AC40C56B6C60046863604368102B036843
:1005500003D099600068C26030BD9A600068C160D5
:1005600030BD7047082000F021BA7047024610B530
:1005700000200146535C382B3DD009DCA3F1300349
:10058000082B1FD2DFE803F01E151923272B2F336A
:10059000632B40D006DC392B31D0612B33D0622B5A
:1005A00010D134E0642B3AD0652B3CD0662B09D1B6
:1005B0003DE08C004FF4805302E08C004FF4005378
:1005C000E3401844491CC9B20429D3D310BD8C00A0
:1005D0004FF44053F4E78C004FF48043F0E78C0075
:1005E0004FF4A043ECE78C004FF4C043E8E78C00E5
:1005F0004FF4E043E4E78C004FF40043E0E78C0065
:100600004FF41043DCE78C004FF42043D8E78C0014
:100610004FF43043D4E78C004FF44043D0E78C00D4
:100620004FF45043CCE78C004FF46043C8E78C0094
:100630004FF47043C4E770B50446002003463125EB
:100640000EE014F8012B50400022060602D585EA80
:10065000400000E04000521CC0B2082AF5DB5B1CE1
:100660008B42EEDB70BD000010B5F52001F0DEFB23
:10067000A0F57F41FF3907D020F00F0040F2E241A2
:10068000484300143C3810BD004810BD19FCFFFF62
:1006900010B5F32001F0CAFBA0F57F41FF3908D067
:1006A00020F0030040F2DD6148430014A0F5EA7039
:1006B00010BD014810BD000019FCFFFF10B590F8F7
:1006C00021100024022903D00421816301243DE08C
:1006D00001680A6822F00E020A6001680A6822F0C6
:1006E00001020A601A4A0168914201D1012121E008
:1006F000174A1432914201D110211BE0144A2832CA
:10070000914201D1891515E0114A3C32914201D143
:1007100089140FE00E4A5032914202D14FF48031D9
:1007200008E00B4A6432914202D14FF4801101E09B
:100730004FF08071064A083A5160012180F821107B
:10074000002180F82010416B01B18847204610BD80
:10075000080002402DE9F05FC16B0C6801680B686E
:10076000D0F840C0042202FA0CF2494DDFF824A16F
:10077000494E4A4FDFF828B1DFF828E122422CD059
:100780005A072AD50A68920603D40A6822F004029E
:100790000A600168A94201D1042219E0514501D142
:1007A000402215E0B14202D14FF4806210E0B9421C
:1007B00002D14FF480420BE0594502D14FF4802220
:1007C00006E0714502D14FF4800201E04FF08062F3
:1007D0002F4908394A60C16A3BE04FF0020808FA25
:1007E0000CF818EA040F4FF000094FF0010235D061
:1007F0005FEA837832D50B689B0605D40B6823F03B
:100800000A030B6080F821200168A94201D102226D
:1008100019E0514501D1202215E0B14202D14FF437
:10082000007210E0B94202D14FF400520BE059457A
:1008300002D14FF4003206E0714502D14FF40012AC
:1008400001E04FF00072124908394A6080F82090A8
:10085000816A00291AD0BDE8F05F0847082505FA2B
:100860000CF5254212D01B0710D50B6823F00E03A0
:100870000B6090F84010C36B02FA01F1596082637B
:1008800080F8212080F82090016BE2E7BDE8F09F1E
:10089000080002401C0002403000024044000240B8
:1008A000580002406C00024030B528B308C8134914
:1008B00014221944B1FBF2F18900C163104981632C
:1008C000022141771A6843F6F0718A43D0E9001497
:1008D0002143D0E902452C43214304692143446963
:1008E000214384692143114319600021416301229E
:1008F00042770177084630BD012030BDF8FFFDBFCB
:100900000000024070B5044690F820000025012840
:100910000CD0012084F8200094F821600020012EE2
:1009200006D084F820000225284670BD022070BD44
:10093000022684F82160A0632068066826F001067C
:1009400006602046FFF7F8FDE06A0028206801688D
:1009500002D041F00E0106E021F0040101602068A0
:10096000016841F00A0101602068016841F001015D
:100970000160D9E770B5044600F026F90546601C11
:1009800002D004480078044400F01EF9401BA04245
:10099000FAD370BD28000020082803D1024800685F
:1009A00002F04EBB7047000024000020044910B53F
:1009B0000A68024202D00860FFF7EEFF10BD000097
:1009C000140401402DE9F84FDFF8B891002409F133
:1009D000040A0AF1040B23460F270BF1040EC9E0A9
:1009E0000125A5402A40AA427DD1674ED1F804C016
:1009F000ACEB0608B44532D014DCBCF1030F3AD09E
:100A000009DCBCF1000F2AD0BCF1010F1CD0BCF1F5
:100A1000020F31D11DE0BCF1110F17D0BCF1120F44
:100A20002AD119E0B8F5881F19D006DCB8F5803F47
:100A300015D0B8F5801F1FD111E0B8F5001F0ED0FA
:100A4000B8F5041F18D10AE0CB6815E0CB681B1D70
:100A500012E0CB6808330FE0CB680C330CE08B68F6
:100A60002BB1012B4FF0080303D0456104E00423B0
:100A700002E0056100E00023FF2A01D8064601E0FC
:100A800000F104064FEA840501D9A5F12005D6F846
:100A9000008007FA05FC28EA0C0803FA05F548EA85
:100AA0000508C6F800804D68ED0062D5374DAE6987
:100AB00046F00106AE61AD6924F0030605F00105BC
:100AC0000095334D06EB050CDCF80850A607360FF1
:100AD00007FA06F825EA0805DFF8B880404503D193
:100AE0004FF0000817E044E0DFF8AC80404502D149
:100AF0004FF001080FE0DFF8A480404502D14FF02D
:100B0000020808E0DFF89880404502D14FF0030862
:100B100001E04FF0040808FA06F848EA0508CCF8A6
:100B200008804D68D9F80060ED034D4601D51643A5
:100B300000E096432E604D68DAF80060AD0355463C
:100B400001D5164300E096432E604D68DBF8006047
:100B5000ED025D4601D5164300E096432E604D68D8
:100B6000DEF80060AD02754601D5164300E09643FD
:100B70002E60641C0D682A46E5407FF431AFBDE865
:100B8000F88F000000040140000011100010024026
:100B90000000014000080140000C0140001001402D
:100BA000001401408068084000D001207047C268EE
:100BB00021EA02030A4043EA0241016170470AB197
:100BC000016170470904FBE7014880687047000035
:100BD0002800002002488168027811448160704733
:100BE00028000020074810B5016841F0100101609D
:100BF000032000F095F8002000F006F800F03EF821
:100C0000002010BD0020024000B5014687B0002240
:100C1000192000F065F8192000F054F81348816994
:100C200041F400618161806905A900F400600690CB
:100C3000684600F01DF900F04BF90D490D4AB0FB74
:100C4000F1F10D48491E0260416040F2E732002197
:100C5000C0E90321816000F023FC10B1012007B03E
:100C600000BD054800F04AFCF9E700000010024012
:100C700040420F00002C0140D80300200F4808B567
:100C8000816941F001018161816901F001010091F7
:100C9000C16941F08051C161C069002200F08050FB
:100CA00000900F21901E00F01BF80548416821F0CC
:100CB000E06141F00071416008BD00000010024099
:100CC00000000140002809DB00F01F0201219140D3
:100CD0004009800000F1E020C0F8001170470000DA
:100CE000F0B40E4B1B680C46C3F30223C3F1070597
:100CF000042D00D90425191D072901D2002300E085
:100D0000DB1E012606FA05F1491E214099409E404E
:100D1000761E16403143F0BC01F044BC0CED00E0FF
:100D2000064900F0070208684FF6FF03184040EA42
:100D30000220034A10430860704700000CED00E0F9
:100D40000000FA052DE9F0470F46050061D0434E3B
:100D5000306800F00700B84209D2306820F0070080
:100D600038433060306800F00700B84251D128683D
:100D70003B4C810712D5400703D5606840F4E06022
:100D800060602878000703D5606840F460506060B8
:100D90006068A96820F0F000084360602878C00708
:100DA00028D06868012810D02168022810D089074F
:100DB00000292EDA616821F0030101436160FFF729
:100DC00003FF804641F288390DE021688903EFE78F
:100DD0008901EDE7FFF7F8FEA0EB0801494502D9CC
:100DE0000320BDE8F0876068696800F00C00B0EB94
:100DF000810FEFD1306800F00700B8420BD930689E
:100E000020F0070038433060306800F00700B84237
:100E100001D00120E5E72878400705D56068E9683A
:100E200020F4E060084360602878000706D5606819
:100E3000296920F4605040EAC100606000F058F871
:100E40006168084AC1F30311515CC8400649086053
:100E500006480068FFF7D8FE0020C2E700200240E5
:100E600000100240BC480008340000202C00002084
:100E70000F2202600C4A536803F003034360536877
:100E800003F0F0038360536803F4E063C3605268C7
:100E90004FF4E06303EAD20202610448006800F004
:100EA0000700086070470000001002400020024068
:100EB0000448054900684968044AC1F30221515CAD
:100EC000C84070473400002000100240CC480008A1
:100ED0000448054900684968044AC1F3C221515CCD
:100EE000C84070473400002000100240CC48000881
:100EF00012A185B00FC98DE80F0014A0144A006834
:100F000004905168134801F00C03042B10D0082BF7
:100F10000ED1C1F38343C9031DF803000AD55168FC
:100F200004AAC1F34041515C0A4A5043B0FBF1F0BE
:100F300005B0704708494843FAE70000020304057A
:100F4000060708090A0B0C0D0E0F10100102000015
:100F50000010024000127A0000093D002DE9F84F10
:100F6000040070D02078C04DC00749D06868C0F335
:100F70008100012807D06868C0F38100022809D1E8
:100F80006868C00306D52868800339D560680028E2
:100F9000E7D035E06068B0F5803F0BD010B1B0F518
:100FA000A02F11D0286820F480302860286820F411
:100FB000802002E0286840F480302860606890B1AA
:100FC000FFF702FE06460AE0286840F48020286009
:100FD000F0E700BFFFF7F8FD801B642873D828688E
:100FE0008003F7D50CE0FFF7EFFD064605E000BFF4
:100FF000FFF7EAFD801B6428F0D828688003F7D447
:1010000020789A4E80074FF001094FF0000839D53B
:10101000686810F00C0F07D06868C0F381000228E0
:1010200009D16868C00306D42868800714D52069F0
:10103000012808D110E02069B0B1C6F80090FFF790
:10104000C3FD074605E00AE1FFF7BEFDC01B02280D
:10105000C4D828688007F7D52868616920F0F800AF
:1010600040EAC10028600DE0C6F80080FFF7ACFD43
:10107000074604E0FFF7A8FDC01B022823D8286814
:101080008007F7D4207800072CD57948A169D9B119
:10109000C0F80090FFF798FD074604E0FFF794FDC5
:1010A000C01B02280FD8686A8007F7D571484FF433
:1010B000FA510068B0FBF1F0009000BF0098411EAB
:1010C0000091FAD20EE080E0C0F80080FFF77CFDCE
:1010D000074604E0FFF778FDC01B022875D8686A50
:1010E0008007F7D42078400760D5E8690027C00062
:1010F00008D4E86940F08050E861E869012700F011
:10110000805000905C480168C90513D4016883468B
:1011100041F480710160FFF757FD824606E000BF91
:10112000FFF752FDA0EB0A0064284ED8DBF8000060
:10113000C005F5D5E06801280AD008B1052813D00C
:10114000286A20F001002862286A20F0040002E0EA
:10115000286A40F001002862E06841F2883B98B1BB
:10116000FFF732FD82460BE0286A40F00400286257
:10117000EEE700BFFFF728FDA0EB0A0159455AD85A
:10118000286A8007F6D50CE0FFF71EFD824605E0D1
:10119000FFF71AFDA0EB0A0159454CD8286A8007D1
:1011A000F6D41FB1E86920F08050E861E06988B3A7
:1011B0006968C1F38101022944D00228C6F8608021
:1011C00004D0FFF701FD044638E034E0FFF7FCFCF3
:1011D000074604E0FFF7F8FCC01B02282BD828685C
:1011E0008001F7D4206AB0F5803F05D16868A16816
:1011F00020F4003008436860D4E9080108436968B6
:1012000021F4741108436860C6F86090FFF7DCFCB5
:10121000044606E025E000BFFFF7D6FC001B0228CD
:1012200009D828688001F7D51BE000BFFFF7CCFC88
:10123000001B022802D90320BDE8F88F286880012E
:10124000F4D40EE00128F7D06868226A00F48031F7
:10125000914204D1616A00F47010884201D00120EB
:10126000EAE70020E8E700000010024000004242E8
:10127000800442423400002000700040704770B586
:10128000040009D0606A002540B125616561A5624E
:1012900094F8510040B10CE0012070BD6068B0F5D9
:1012A000827FF4D0E561F2E784F85050204600F0E8
:1012B0003FF8022084F851002068016821F04001C5
:1012C0000160A088218900F4827001F40441084380
:1012D000A18901F400610843217C01F00201084367
:1012E000217D01F001010843218B01F400710843C5
:1012F000217F01F03801084394F8201001F08001AB
:101300000843218D01F40051084321680860A06959
:10131000042101EA1040216848602068C16921F475
:101320000061C1616565012084F85100002070BD35
:1013300070B586B000250646009501950295039587
:1013400000681A4988422ED11949886940F48050B2
:101350008861886900F480500490886940F0040036
:1013600088618869694600F004000490A02000901C
:1013700002200190032003900E48FFF723FB0F4C3F
:101380000D4820601020C4E901058020C4E9030550
:101390006561A5612046E561FFF786FA08B1FFF7B0
:1013A000E4F8B464666206B070BD0000003001402D
:1013B00000100240000801403000024054030020A9
:1013C0002DE9F041044690F850000026012809D08C
:1013D000012784F8507094F851000025012804D0AA
:1013E00002264EE00220BDE8F08189B182B10320DF
:1013F00084F8510065652163A286E286A563656471
:101400002564A587E587A068B0F5004F02D00BE002
:10141000012636E02068016821F040010160206863
:10142000016841F480410160A16C1848C862A16C58
:1014300017488862A16C17480863A06C4563E38E67
:101440002268216B0C32A06CFFF75CFA38B1606D3A
:1014500040F010006065012684F8517011E02068AA
:101460000168490603D4016841F040010160206829
:10147000416841F0200141602068416841F002016B
:10148000416084F850503046ADE700000D1F000861
:10149000171F0008EB1E0008704770477047704721
:1014A00010B5040003D094F83D0010B107E001200E
:1014B00010BD002084F83C00204600F01EF80220F9
:1014C00084F83D00211D206800F034FF012084F8DD
:1014D000460084F83E0084F83F0084F8400084F819
:1014E000410084F8420084F8430084F8440084F802
:1014F000450084F83D00002010BD704790F83D1075
:10150000012901D001207047022180F83D100168B7
:10151000CA6842F00102CA6000680B49884208D0DC
:10152000B0F1804F05D00949884202D0084988426D
:1015300004D1816801F00701062903D0016841F058
:101540000101016000207047002C014000040040B0
:1015500000080040704770B50446006801694FF00C
:101560000005C943890715D4C168C943890711D447
:10157000E91E0161012020772068806980072046EC
:1015800002D0FFF7E7FF04E000F098F8204600F0F3
:1015900096F8257720680169C943490717D4C168BF
:1015A000C943490713D46FF0040101610220207779
:1015B0002068806910F4407F204602D0FFF7CAFF00
:1015C00004E000F07BF8204600F079F825772068E9
:1015D0000169C943090716D4C168C943090712D470
:1015E0006FF008010161042020772068C06980073E
:1015F000204602D0FFF7AEFF04E000F05FF820467F
:1016000000F05DF8257720680169C943C90617D441
:10161000C168C943C90613D46FF0100101610820E5
:1016200020772068C06910F4407F204602D0FFF781
:1016300091FF04E000F042F8204600F040F82577E2
:1016400020680169C943C90708D1C168C943C907EE
:1016500004D1891E0161204600F032F8206801693A
:10166000C943090609D4C168C943090605D46FF006
:10167000800101612046FFF711FF20680169C9431D
:10168000490609D4C168C943490605D46FF0400131
:101690000161204600F01EF820680169C9438906EF
:1016A0000BD4C168C943890607D46FF020010161DA
:1016B0002046BDE87040FFF7F2BE70BD704770472E
:1016C00000680349884201D1FFF784BA70470000DF
:1016D000002C01407047704770B5026804461068DE
:1016E000D168536910F00F0F53D003F0010501F4D6
:1016F00090762E435FD0C20705D0CA0503D5E26BB2
:1017000042F00102E263420705D5DA0703D0E26B3B
:1017100042F00202E263820705D5DA0703D0E26BEA
:1017200042F00402E263020707D501F020022A43D7
:1017300003D0E26B42F00802E263E26B002A34D08D
:10174000800604D5880602D5204600F03FFE2068BA
:101750004069E16BC0F3801001F0080101432046AD
:1017600024D000F025FE2068416949061AD5416958
:1017700021F040014161606BA0B12D494163606B74
:10178000FEF79CFF002810D0606B416BBDE87040F5
:10179000084783060FD58B060DD52046BDE870405F
:1017A00000F014BE2046FFF796FF70BDFFF793FFD1
:1017B0000020E06370BD03062BD50B0629D594F8F5
:1017C00039002128F6D1A068B0F5805F01D12069E9
:1017D000B0B1206A411C2162216800784860E08C29
:1017E000401E0004000CE084E4D12068C16821F0B0
:1017F0008001C1602068C16841F04001C16070BDD6
:10180000206A0088C0F308005060206A801C2062B3
:10181000E5E74006F3D54806F1D5D168204621F02A
:101820004001D160202184F8391000F014F970BD16
:10183000A123000870B5040004D094F839000025F5
:1018400010B106E0012070BD84F83850204600F049
:1018500023F8242084F839002068C16821F400515D
:10186000C160204600F0F8FD2068016921F4904134
:1018700001612068416921F02A0141612068C16845
:1018800041F40051C160E563202084F8390084F8F8
:101890003A00002070BD000030B585B000240094EF
:1018A0000194029403940068184988422CD1184886
:1018B000816941F480418161816901F48041049131
:1018C000816941F0040181618069124D00F00400DA
:1018D00004904FF4007000900220019003200390C8
:1018E00069462846FFF76EF82815CDE900046946D9
:1018F00028460294FFF766F8002205212520FFF70D
:10190000EFF92520FFF7DEF905B030BD00380140C2
:10191000001002400008014090F83A30202B22D1FC
:10192000F9B1F2B190F83830012B1CD08162828578
:10193000C2850021C163222280F83A2080F8381045
:101940000168CA6842F48072CA6001684A6942F05C
:1019500001024A610068C16841F02001C1600020B5
:1019600070470120704702207047000010B50068E2
:10197000094988420FD10948007801F039FF084928
:101980006FF0200009680860BDE81040012203499B
:101990000348FFF7C1BF10BD003801408801002097
:1019A000980300202DE9F843044690F839001F46BB
:1019B00016460D4620284CD1C5B1BEB194F838006A
:1019C000012846D0012084F838004FF00008C4F800
:1019D0003C80212084F83900FFF7F6F8A684814680
:1019E000E684A068B0F5805F03D004E00120BDE884
:1019F000F883206928B12E465FF0000584F838800E
:101A00000EE00026FAE78021204600F081FDA0B913
:101A1000AEB116F8010B21684860E08C401EE084EE
:101A2000E08C4B464FF0000200970028EBD14FF0BE
:101A30004001204600F06CFD30B10320D7E735F8B7
:101A4000020BC0F30800E6E7202084F839000020EC
:101A5000CDE70220CBE770472DE9F04F85B08146F6
:101A6000DDE90EA51C46164688462846FEF7ABFC67
:101A70004349FEF72FFC0090CAF16400FEF79AFC80
:101A80000099FEF727FC3F49FEF756FC83463C20B1
:101A9000B4FBF0F7B4FBF0F100FB1140FEF78AFC59
:101AA000044659460098FEF70FFC2146FEF712FC4B
:101AB0003549FEF741FC01902846FEF784FC304989
:101AC000FEF708FC0446FEF783FCC5B2CAF16400C9
:101AD000FEF770FC2146FEF7FDFB2A49FEF72CFCC1
:101AE000FEF776FCC4B2052F41D2DFE807F0030E03
:101AF0001C29340089F8005058460199FEF792FBE2
:101B0000FEF766FC88F8000009E0DDE90001FEF759
:101B1000DBFBFEF75DFC89F8000088F800503470AC
:101B200005B0BDE8F08F89F8004088F800505846AD
:101B30000199FEF777FB00BFFEF74AFC3070EFE734
:101B400089F80040DDE90001FEF7BEFBFEF740FC2E
:101B500088F8000009E058460199FEF763FBFEF79C
:101B600037FC89F8000088F800403570D8E789F81C
:101B7000005088F80040DDE90001FEF7A5FBDBE737
:101B8000333323400000C84200007042FEE70000EB
:101B9000094808B5416941F00101416140690022ED
:101BA00000F00100009005210D20FFF799F8BDE835
:101BB00008400D20FFF786B80010024010B5A6B00F
:101BC000002023902490012123A801F01AFA1D4C33
:101BD0001C221D4960616846FEF700FB0021684633
:101BE00001F088FA184920601C221C3107A8FEF772
:101BF000F5FA002107A801F07DFA134960601C2264
:101C000038310EA8FEF7EAFA00210EA801F072FAA8
:101C10000D49A0601C22543115A8FEF7DFFA0021FF
:101C200015A801F067FA0849E0601C2270311CA871
:101C3000FEF7D4FA00211CA801F05CFA206126B05E
:101C400010BD000010000020304800082DE9F043CE
:101C500085B000243448009401940294039481696F
:101C600041F020018161816901F0200104918169C5
:101C700041F004018161816901F0040104918169ED
:101C800041F0080181618069DFF8A08000F0080060
:101C90000490012241F602014046FEF790FF002227
:101CA0004FF480714046FEF78AFFDFF884900022EF
:101CB000C0214846FEF783FF41F6021001250226A7
:101CC000CDE90005CDE9024669464046FEF77AFEB9
:101CD000184F0820CDE90007694602944046FEF7F8
:101CE00071FE0620CDE90007694602944846FEF7DA
:101CF00069FE28038DE8310069464846FEF762FE1A
:101D0000C020CDE90005CDE9024669464846FEF708
:101D100059FE002205210920FEF7E2FF0920FEF707
:101D2000D1FF05B0BDE8F08300100240000801407B
:101D3000000C014000001110104810B50E49016060
:101D40004FF482714160002102228160C0E90312D8
:101D500001224261520282611022C0E907214162E0
:101D600081620A21C162FFF78AFA002803D0BDE828
:101D70001040FEF7FABB10BD00300140FC0200200D
:101D80000C4810B50A4901604FF4E131416000216F
:101D900081600C22C160C0E904128161C161FFF75A
:101DA00049FD002803D0BDE81040FEF7DEBB10BDA2
:101DB0000038014098030020FEE7704770B5194CC9
:101DC0001948002622784FF480512AB10025012AB3
:101DD00009D0022A24D111E0FEF7E4FE00BB2078EE
:101DE000401C20701CE0FEF7DDFE28B92078401C66
:101DF00020700120A07013E0257011E0FEF7D2FEE4
:101E000010B1A6786570F7E76078401CC0B26070CA
:101E10003C2805D30226A570FF2801D31E20607040
:101E2000304670BD00000020000C0140F8B50446AB
:101E3000002500F093FF802000F066FF00F0B0FF67
:101E4000204600F061FF00F0ABFF00F09BFF002494
:101E50004FF6FF760A2001F0C8F800F07FFF8120DE
:101E600000F052FF00F09CFF90B9012400F028FF21
:101E70008DF8000000F0D0FE00F022FF8DF8010088
:101E800000F0CAFE00F01CFF8DF8020000F006FF13
:101E900000F078FF6D1CEDB20A2D02D300F072FF46
:101EA0000DE0002CD6D002216846FEF7C4FB9DF859
:101EB0000210884203D1BDF8000040BAF8BD304698
:101EC000F8BDAFF3008010B5FE2400F047FF80207E
:101ED00000F01AFF00F064FF204600F015FF00F04C
:101EE0005FFFBDE8104000F04DBF10B5406A0168CB
:101EF0004A6822F003024A60416D41F010014165D9
:101F0000012180F85110FFF7B9F910BD10B5406AF2
:101F1000FFF7C3FA10BD38B50546446AFEF754FE14
:101F2000024628680068800623D42068416821F0B2
:101F3000200141602068416821F002014160642174
:101F4000204600F01AF818B1606D40F0200060657E
:101F5000A068002118B92068C26880680090E186F6
:101F6000012084F85100606D18B12046FFF786F912
:101F700038BD2046FFF790FA38BD38B50B460092C1
:101F800004460022802100F009F8002804D0606D8A
:101F900040F020006065032038BD00002DE9F843C3
:101FA0001E46914688460446089DFEF70DFE401BDE
:101FB000351AFEF709FE074625480068C0F3CB3006
:101FC000684338E0701C37D0FEF7FEFDC01BA84206
:101FD00003D215B1009860B32CE02068416821F06D
:101FE000E00141606068B0F5827F0BD1A068B0F578
:101FF000004F02D0B0F5806F04D12068016821F055
:1020000040010160A06AB0F5005F09D12068016855
:1020100021F4005101602068016841F40051016021
:10202000012084F85100002084F850000320BDE80E
:10203000F8830025401E00902068816838EA01007E
:1020400004D000214945BDD10020F0E70121F9E786
:10205000340000202DE9F00F0022DFF85CA00124FD
:1020600013464FF0F0090AF11805602703EB430609
:10207000002106EB0A0C00201CF80160C0F10708E3
:1020800004FA08F816EA080F02D005F8029000E0FA
:10209000AF54401C521C0828F0D3491C0329EAD332
:1020A0005B1C082BE2D3BDE8F00F0349C0221831B6
:1020B0000248FFF785B90000B0000020FC020020B4
:1020C00010B5082B06D203EB4304034B1955E11856
:1020D00048708A7010BD0000B000002000244FF44A
:1020E0000065144E4FF48059DFF84CA04FF47A7815
:1020F0000BE01E2C1AD003D929463046FEF757FDB7
:10210000641CA4B2642000F070FF49465046FEF7FC
:1021100049FD0028EDD0002729463046FEF747FD4F
:10212000404600F062FF002FF6D0EEE7002000F0FE
:1021300023FFE5E700080140000C014086B00026BF
:10214000264F274DFFF73AFE012802D0022840D142
:1021500012E03878012806D001203870014614209A
:1021600000F074FE33E0002038700146142000F0C7
:102170006DFEFEF7CBF92CE02868012E03D0401E3F
:10218000286006D006E0401C2860642802D30026A0
:1021900000E00126288804AA81B21248008880B293
:1021A000CDE90001104803A9008883B202A8FFF717
:1021B00053FC002423469DF810209DF80C109DF838
:1021C0000800FFF77DFF641CE4B2082CF2D3FFF790
:1021D00041FF322000F009FFB4E7000003000020B7
:1021E00004000020080000200C0000201E4F1F4C9F
:1021F0001F4EDFF8808086B04FF0FF3B4FF4B4797C
:102200004FF0000A5946786900F042FF20683C30E0
:102210002060484503D35046C4F800A004E030686D
:1022200018B96420C4F800A03060B8F80000318804
:1022300080B289B2CDE90010208802AA83B203A936
:1022400004A8FFF709FC00252B469DF808209DF8FF
:102250000C109DF81000FFF733FF6D1CEDB2082D38
:10226000F2D3FFF7F7FECDE7100000200C000020AE
:1022700008000020040000200A24094DFEF708FA97
:1022800090FBF4F1652000F047FEFEF7EDF990FBBE
:10229000F4F1662000F040FE284600F0A6FEEDE7CF
:1022A000C0D4010001F0EAFCFCE7000010B55020AA
:1022B00080F31188BFF34F8FBFF36F8F02F022F9C5
:1022C00018B104494FF080500860002080F3118855
:1022D00010BD000004ED00E030B58FB02821684645
:1022E000FDF795FF14210AA8FDF791FF01210804CD
:1022F000CDE900100024029402250491CDE9075095
:102300004FF4402009906846FEF728FE0F20CDE9E3
:102310000A056802CDE90C4001210AA80E94FEF7D7
:1023200011FD0FB030BD70470148FFF714B9000030
:10233000D8030020F0B50268164B174C174D4FF02C
:102340008047984205D0B84203D0A04201D0A842AD
:1023500003D122F070064A683243984205D0B84251
:1023600003D0A04201D0A84203D122F44074CA682D
:1023700022434C6922F08002224302608A68C262D2
:102380000A688262984201D10969016301214161B1
:10239000F0BD0000002C0140000400400008004097
:1023A00010B5406A0021C185C184FFF794F910BDC2
:1023B0000168CA6822F49072CA6001684A6922F012
:1023C00001024A61202180F83A10704710B590F858
:1023D0003A10222901D0022010BD82684FF48053A8
:1023E0009A4201D1016921B1816A9A421BD04AB156
:1023F0000AE00268816A5268C2F308020A80816AB0
:10240000891C08E0026972B10268526802F07F021A
:102410000A70816A491C8162C18D491E0904090C38
:10242000C18503D016E002685268F1E70168CA6806
:1024300022F02002CA600168CA6822F48072CA6071
:1024400001684A6922F001024A61202180F83A10AD
:10245000FFF78CFA002010BD70B5044600680169D2
:10246000E26821F44051114301612169A0680843E9
:10247000616908432168CA6841F20C639A430243C8
:10248000CA6020684169A26921F440711143416129
:102490001E492068884202D1FEF71AFD01E0FEF7CE
:1024A00007FD00EBC00101EB0012606864218000B1
:1024B000B2FBF0F3B3FBF1F36FF018067343B2FB1A
:1024C000F0F5B2FBF0F605EB8305322303EB0515BF
:1024D000B5FBF1F5B6FBF1F605F0F00505EB0615D9
:1024E000B2FBF0F6B2FBF0F0B0FBF1F06FF01802C7
:1024F000504306EB800003EB0010B0FBF1F02168C5
:1025000000F00F002844886070BD000000380140D2
:102510002DE9F041984617460E460446069D1DE0FB
:10252000681C1BD02DB1FEF74FFBA0EB0800A842A2
:1025300014D92068C16821F4D071C1602068416954
:1025400021F001014161202084F8390084F83A002B
:10255000002084F838000320BDE8F081206800687E
:1025600036EA000004D00020B842D9D00020F3E7BA
:102570000120F9E70148FFF7AFB8000098030020F9
:10258000FEE700000FB4054B10B503A9044A0298FA
:1025900000F028F810BC5DF814FB0000E12B0008E7
:1025A000AC0000200907090E002804DB00F1E02040
:1025B00080F80014704700F00F0000F1E02080F870
:1025C000141D704702E008C8121F08C1002AFAD182
:1025D00070477047002001E001C1121F002AFBD1A3
:1025E000704700002DE9FF4F8DB09B460F46044613
:1025F000002606E025280BD05A460F999047641C08
:10260000761C20780028F5D111B03046BDE8F08F57
:102610000025A8460122984900E0054314F8013F2F
:10262000203B02FA03F00842F7D120782E2817D178
:1026300014F8010F45F004052A280ED06FF02F0280
:102640002078A0F1300109290AD808EB880102EBB3
:10265000410100EB0108641CF2E757F8048B641C8D
:1026600020786C280DD004DC4C2812D06A2811D1B7
:1026700004E074280DD07A280CD10AE045F4001546
:1026800007E0617845F48015814202D1641C05F5AC
:102690008015641C2278692A45D008DC002AB3D052
:1026A000582A69D0632A10D0642A08D13BE0702AE6
:1026B00067D0732A13D0752A5CD0782A5CD0104674
:1026C0005A460F999047761CD3E017F8040B8DF803
:1026D000000000208DF80100E946012003E057F8D2
:1026E000049B4FF0FF3069074FF0000501D40AE06A
:1026F0006D1C45450DDA8542FADB19F805100029F5
:10270000F6D106E06D1C8542FCDB19F805100029A6
:10271000F8D12E4404E019F8010B5A460F9990475E
:102720006D1EF8D2A5E00A200021CDE90801C5F30D
:10273000025002280DD001CFC117031E71F1000312
:102740000DDA4FF0000CD0EB0C006CEB01012D23E7
:1027500008E0FF1D27F00707F7E80201EDE72B056A
:1027600004D52B238DF8283001233BE0EB0739D02B
:102770002023F7E70A2000E010200021CDE908011E
:1027800007E01020002145F00405CDE908014FF0D5
:102790000808C5F3025002280FD001CF00214FF0E6
:1027A000000A2B071FD5702A0DD0DDE908C38CF075
:1027B000100C5CEA030C0CD015E0FF1D27F0070796
:1027C000F7E80201EBE740228DF828204FF0010ADC
:1027D0000BE050EA010306D030238DF828308DF845
:1027E000292002239A46582A04D024A20DF1200958
:1027F0000B9209E026A2F9E7DDE90823FDF7FCFDCD
:102800000B9B9B5C09F8013D50EA0102F4D1ADEB52
:10281000090020300890680701D44FF0010808999A
:10282000884502DDA8EB010000E00020804600257D
:1028300006E00AA85A46405D0F9990476D1C761C29
:102840005545F6DB04E030205A460F999047761C38
:10285000B8F10001A8F10108F5DC05E019F8010B59
:102860005A460F999047761C0899481E08900029EF
:10287000F4DC641CC5E60000092801003031323365
:1028800034353637383961626364656600000000AC
:102890003031323334353637383941424344454696
:1028A0000000000010B50021142000F0CFFA002134
:1028B000152000F0EFFA0021162000F02DFB002279
:1028C0001146182000F006FB0021652000F024FBD3
:1028D0000021BDE81040662000F01EBB01780A020E
:1028E000417811430A028178C078114340EA0120FF
:1028F000704700002DE9F84F3949814601EB090680
:10290000F0780124374B092828D2DFE800F00515BC
:10291000191D26292B2764001978002031B10121C7
:1029200000F04AFFC2B20321002012E0002100F0B3
:1029300043FFC2B21C70F6E7BDE8F84F00F004BCDC
:1029400000220321022004E0B079D8700022032184
:102950000846BDE8F84F01F00FBA5C70BDE8F88F8B
:102960009C70FBE770793179002540EA01272FE060
:102970001B4809EB05010844017A407A741900EB01
:10298000012014F8068F1FFA80FBA078E17894F8F4
:1029900001A001EB002080B2009000F03AF9002184
:1029A000114A05E012F811C0C44503D0491CC9B250
:1029B0008142F7D302EB41004178514504D1211DFA
:1029C0004046009A00F0B2F805EB0B00001D85B2FE
:1029D000BD42CDD3C2E7BDE8F84FFFF763BF0000AB
:1029E000101100209C000020D448000830B585B0AC
:1029F00000F0C0FA05460A20B5FBF0F0144904AA1D
:102A00000860144980B2098889B2CDE900101248E3
:102A100003A9008883B202A8FFF71EF8002423460A
:102A20009DF810209DF80C109DF80800FFF748FB5A
:102A3000641CE4B2082CF2D3FFF70CFB29461620E5
:102A400000F06AFA012800D0002005B030BD000077
:102A500004000020080000200C000020F0B589B020
:102A6000044600788DF8080060788DF80900A07899
:102A70008DF80A00E0788DF80B0020798DF80C00B5
:102A800060798DF80D00A0798DF80E00E0798DF851
:102A90000F00207A8DF81000607A8DF81100A07A6E
:102AA0008DF81200E07A8DF813000E4602A8FDF7AB
:102AB0005DFD074603A8FDF759FD054604A8FDF78F
:102AC00055FD1749174B0F600A21B5FBF1F2B0FB1A
:102AD000F1F015491A60BBB2086091B280B2CDE93D
:102AE000001007AA06A905A8FEF7B6FF00252B4689
:102AF0009DF81C209DF818109DF81400FFF7E0FACF
:102B00006D1CEDB2082DF2D3FFF7A4FA3246214630
:102B1000182000F0DFF9012800D0002009B0F0BD36
:102B20000C000020080000200400002070B50B46B7
:102B3000A0F114010024012509291AD2DFE801F0CF
:102B4000051C252B32383B4447001846114600F03F
:102B50000DFA0600214807D00570FFF77BFA3146D1
:102B6000142000F073F936E00470FDF7CFFCF6E7AF
:102B7000284670BD204670BD1846114600F0F8F991
:102B80000146152000F086F925E0BDE870401146A9
:102B90001846FFF72BBF1846114600F0EBF9014627
:102BA00017200EE0BDE8704011461846FFF756BFEB
:102BB000194619200DE01846114600F0DBF90146D0
:102BC0001A2000F0A9F906E019461B2001E0194679
:102BD0001C2000F07FF90128CCD1C9E703000020B8
:102BE00038B504468DF8000069460320ABBE204688
:102BF00038BD0000034610B50020024606E000BFC5
:102C000013F8014B521C2044C0B292B28A42F7D34F
:102C100010BD0B20704700002DE9F041074D8024C6
:102C20002C6000F035F82F1F40263E6000F030F891
:102C30002E6000F02DF83C60BDE8F081140C0140DE
:102C4000114800B5816985B041F004018161816955
:102C500001F004010491816941F0040181618069FE
:102C6000694600F004000490C020009011200190FB
:102C700000200290032003900448FDF7A3FE00F01B
:102C800081F805B000BD000000100240000C0140BA
:102C90000020401CC0B20A28FBD3704770B5074C17
:102CA00080202060FFF7F4FF40252560FFF7F0FF4C
:102CB000201D0560BDE87040FFF7EABF100C014021
:102CC0002DE9F04700240F4FDFF838802546A8F1A2
:102CD0000808402607F104096006040E3E60FFF76D
:102CE000D7FFD8F80000000601D5641CE4B2C9F88B
:102CF0000060FFF7CDFF6D1CEDB2082DECD3204630
:102D0000BDE8F087100C01402DE9F047DFF848904E
:102D10000024054640274FF08008A9F10406280644
:102D2000404601D5306001E0C9F80000FFF7B0FF70
:102D30003760FFF7ADFFC9F80070072C01D1C6F866
:102D400000806806050EFFF7A3FF641CE4B2082CA0
:102D5000E5D3BDE8F0870000140C014070B50848C9
:102D60008025056040240460FFF792FF044E361D65
:102D70003560FFF78DFF3460BDE87040FFF788BF16
:102D8000100C014070B5054880240460034D4020BC
:102D90002D1F2860FFF77CFF2C6070BD140C0140D4
:102DA00070B50C4C80202060FFF772FF4025256035
:102DB000FFF76EFF074808380068000601D50124B8
:102DC00000E000240348001D0560FFF761FF204676
:102DD00070BD0000100C0140EFF30580002800D00A
:102DE00001207047FDF7FEFEFFF776FAFEF72EFF93
:102DF000FEF7CEFEFEF7A0FFFEF7C2FF01220E494E
:102E00000E48FEF789FD1420FDF7B4FD00F024FF05
:102E1000FFF716FFFFF755F8FDF778FB0120FDF7E8
:102E2000A9FDFDF773FBFEF7C9FE00F0E5F800BF52
:102E300000F024FFFCE70000880100209803002038
:102E400001460020842900D0C81C704710B5104AE4
:102E50000C46014612780020012A14D000F0ACFC88
:102E6000012100F0A9FC002100F0A6FC012100F0E6
:102E7000A3FC54B15FF0010100F09EFC0246032167
:102E8000072000F079FF012010BD0021F4E70000C9
:102E9000A800002010B50E4A0C460146127800200A
:102EA000012A12D000F088FC042100F085FC0021EA
:102EB00000F082FC012100F07FFC214600F07CFC48
:102EC00002460321072000F057FF012010BD00003B
:102ED000A800002070B514460E4A0D46014612782F
:102EE0000020012A13D000F067FC032100F064FCED
:102EF000210A00F061FCE1B200F05EFC22462946A6
:102F000000F04CFC02460321072000F035FF0120B1
:102F100070BD0000A800002010B5134A0C46014601
:102F200012780020012A1DD000F046FC022100F09A
:102F300043FC002100F040FC042100F03DFC210E88
:102F400000F03AFCC4F3074100F036FCC4F307215B
:102F500000F032FCE1B200F02FFC02460321072012
:102F600000F00AFF012010BDA80000200078704783
:102F700000787047FFF7B2BC064A10B50146002042
:102F8000107000F019FCC2B20321BDE8104005200A
:102F900000F0F2BE9E00002030B538B131B1884259
:102FA00002D98C18844212D2002305E0002030BDE3
:102FB000CD5CC5545B1C9BB29342F9D330BD8B18DA
:102FC00013F8014C8318521E03F8014C92B2002AE8
:102FD000F5D130BD0021002806D000E0491C10F8D2
:102FE000012B002AFAD10846704710B500B901201C
:102FF00000F026FD002010BD10B500F0C1FD00203E
:1030000010BD38B543684BB1012909D10320002216
:1030100000901146012000F055FF38BD012901D074
:10302000002038BD03220021012000F027FF04000A
:1030300004D000231A46194600F0BCFF204638BDD4
:1030400038B5002405460094FFF7C6FE90B16946E6
:10305000284601F05FF8012801D0FF2038BD009814
:1030600088B10A494FF080500860BFF34F8FBFF31B
:103070006F8F08E000231A461946284600F09AFF91
:10308000012800D0FF24204638BD000004ED00E0F8
:1030900038B505004FF0000000900FD00024481C08
:1030A0000ED001B10C46FFF797FEB8B16A46002179
:1030B000284601F07DF8012816D104E0802038BDB3
:1030C0004FF0FF34EFE7009880B109494FF080508E
:1030D0000860BFF34F8FBFF36F8F07E0214628468C
:1030E00001F0B4F8012801D0FF2038BD002038BD20
:1030F00004ED00E07FB50D4604464169B0F90800D3
:1031000081B1A16971B1FFF79BFED4E905128DE889
:103110000700D4E900102B46226901F0BAF90390A8
:1031200004B070BDFFF78CFE03A9CDE90001208A31
:103130002B4682B2D4E9001001F07EF9012801D0BB
:103140000020EDE70398EBE710B5002422A0FFF77D
:1031500041FF82B220A1204600F020FBC4B220A093
:10316000FFF738FF82B21EA1204600F017FBC4B261
:1031700020A0FFF72FFF82B21EA1204600F00EFB19
:10318000C4B21EA0FFF726FF82B21CA1204600F0A9
:1031900005FBC4B21BA0FFF71DFF82B219A1204698
:1031A00000F0FCFAC4B219A0FFF714FF82B217A115
:1031B000204600F0F3FAC4B215A0FFF70BFF82B26D
:1031C00013A1204600F0EAFAC2B20321BDE8104084
:1031D000012000F0D1BD00007B2270223A220000C5
:1031E0006868376C636B3770746C396A61656761E6
:1031F00000000000222C2276223A2200312E302EAE
:1032000030000000222C226D223A00003200000023
:103210007D0000002DE9F041184C0F460546666917
:103220002068001D00F01EFB38B9206890F82C10B3
:1032300001208840A1698143A161681C07D137B191
:103240002168BDE8F0410E48091D00F04FBB206821
:103250003544B5424560216805D2A068BDE8F0411B
:10326000091D00F02BBB6068091D00F027FB206BD7
:10327000854200D22563BDE8F081000038000020BF
:10328000FC0400202DE9F041054600F03BFB2E4CEC
:103290002069401C206120682C4F10B1E06940B3C8
:1032A0002DE025602069012829D1002606EB860043
:1032B00007EB800000F0F4FA761C072EF6D32348C3
:1032C0008C3000F0EDFA2148A03000F0E9FA1F48F8
:1032D000B43000F0E5FA1D48C83000F0E1FA1B48B0
:1032E000DC3000F0DDFA19488C3060601430A060EA
:1032F00005E02068E96AC06A884200D82560E06A73
:10330000401CE062E96A0120A26988401043A06184
:1033100001EB810007EB8000291D00F0E7FA00F0C7
:1033200011FBE06900280CD02068E96AC06A884275
:1033300007D207494FF080500860BFF34F8FBFF3AB
:103340006F8FBDE8F08100003800002020040020CD
:1033500004ED00E030B4026C0B46002A0BD0C168CB
:103360001144C1604468A14201D30168C16030BC0E
:103370001846FCF733BF30BC70472DE9F041856B30
:10338000174604460026026C82B1C7B1E068FCF71C
:1033900025FFE168206C091AE1602268914202D29F
:1033A0006168081AE060022F16D017E02068A8B9FB
:1033B000606801F00BF90646002060600EE0A0682E
:1033C000FCF70CFF216CA0680844A060616888428B
:1033D00004D32068A06001E005B16D1E6D1CA563DB
:1033E0003046BDE8F08110B5044690F8510058B160
:1033F00001280CD002280FD0502080F31188BFF391
:103400004F8FBFF36F8FFEE7206B00F0AFFA2046BF
:10341000BDE8104000F0AABA10BD000010484FF4FB
:103420004061420706D0C01D0D4920F00700411A37
:10343000C1F540610B4A00230144C2E90003083989
:10344000103A21F0070111604B600B600B1AC0E9C4
:10345000001393604FF000405360D060704700004D
:103460001005002084000020144E154CA6F1C8075A
:103470004FF08058DFF84C9012E000BF00F042FAA5
:10348000F068C568281D00F0EDF92069401E206134
:10349000E068401EE06000F055FA2846FFF7A3FF01
:1034A000E0680028EAD138680128F9D9C9F8008015
:1034B000BFF34F8FBFF36F8FF2E70000E8040020E7
:1034C0003800002004ED00E00346009829B10260B6
:1034D000C0E90F31012100F029BD0060F8E72DE9B6
:1034E000F0479A46DDE9098481466FF00303206BBB
:1034F00003EB82021044089D20F00706700707D0F6
:10350000502080F31188BFF34F8FBFF36F8FFEE71A
:1035100023180A5C83F834200A5C12B1401C10287E
:10352000F6D3002784F84370072D00D30625E56203
:10353000C4E91157201D00F0BEF904F1180000F095
:10354000BAF92461C5F107006462A061E76484F8F8
:10355000507052464946304600F00EF92060B8F1EE
:10356000000F01D0C8F80040BDE8F08730B5114920
:1035700000E011460A688242FBD34B685C18844223
:1035800003D1406818444860084643681C189442B8
:1035900009D1084C103C2468A24209D052681A4450
:1035A00042600A6812680260814200D0086030BD43
:1035B0000460F9E78400002010B5044600F0A2F989
:1035C000A06B28B15FF0000400F0BCF9204610BDEC
:1035D0000124F9E706484168096829B14168C968CA
:1035E000C9684968016370474FF0FF31FAE700008E
:1035F0003800002008484068401C4FF0500080F31D
:10360000118804D0BFF34F8FBFF36F8FFEE7BFF376
:103610004F8FBFF36F8FFEE78C0000202DE9F04144
:10362000044600F06FF994F9455004F1240609E0CE
:10363000606A48B1304601F05FF808B100F02EFA38
:103640006D1E6DB2002DF3DC4FF0FF3684F845603F
:1036500000F078F900F056F994F9445004F110079D
:1036600009E0206948B1384601F046F808B100F099
:1036700015FA6D1E6DB2002DF3DC84F84460BDE8D0
:10368000F04100F05FB900002DE9F0410546002748
:1036900000F0ACFA314E306808B9FFF7BFFEF068B1
:1036A00005424BD1C5B3083568070ED005F00700B9
:1036B000C0F108000544680707D0502080F3118846
:1036C000BFF34F8FBFF36F8FFEE72DB37068854256
:1036D00034D82248103001460C6801E020460C46E0
:1036E0006168A94202D221680029F7D131688C4271
:1036F00024D007682168016060680837411B1029E1
:103700000FD96019420708D0502080F31188BFF309
:103710004F8FBFF36F8FFEE710E041606560FFF7EA
:1037200025FF61687068401A7060B268904200D2EC
:10373000B060F06801430020C4E9000101F016F810
:10374000780707D0502080F31188BFF34F8FBFF365
:103750006F8FFEE73846BDE8F0810000740000205E
:103760000449086818B10868826C521C82640868B1
:10377000704700003800002010B5031F4FF0807420
:103780001C601B1F21F001011960191F024B0B6007
:10379000143940380A6010BDF535000870B504468C
:1037A000044815462044801DFFF7F6FB601980B2DF
:1037B00070BD000046110020024A0244401C917175
:1037C00080B27047461100200749D1E901329A4280
:1037D00008D00648824201D3173888608A6812F8F8
:1037E000010B8A60704700009C00002046110020F9
:1037F0000B4910B50B680B490A689C1A012C0DD0B7
:103800009A4202D9D31A172B08D2074B9A4202D3F5
:10381000A3F117020A6002F8010B0A6010BD000054
:10382000A4000020A00000204611002001B50C4893
:1038300082B00068016841680091016841680091A8
:103840000168416800910168416800916FF0400192
:1038500001606423012202A90148FEF7A3F80EBD0E
:1038600098030020D0E9013201699A60D0E9012370
:103870005A604A68824201D182684A60002202612D
:103880000868401E0860086870470000034B03602A
:1038900003F154000860402010607047A801002028
:1038A00000F108014FF0FF32C0E90112C16001616F
:1038B00000210160704700210161704730B50B683D
:1038C0005A1C02D000F1080202E0026904E022461C
:1038D000546825689D42FAD953684B6099608A60A4
:1038E000516008610168491C016030BD42684A604E
:1038F00093688B6093685960916008610168491C06
:1039000001607047502080F31188BFF34F8FBFF3E1
:103910006F8F0A494868401C486001280CD108484C
:10392000006810F0FF0F07D0502080F31188BFF31C
:103930004F8FBFF36F8FFEE7704700008C000020B1
:1039400004ED00E00849486828B1401E486001D1F4
:1039500080F311887047502080F31188BFF34F8F98
:10396000BFF36F8FFEE700008C00002070B50028C9
:1039700027D0144DA0F108046168E868014207D11E
:10398000502080F31188BFF34F8FBFF36F8FFEE796
:1039900022683AB1502080F31188BFF34F8FBFF3F4
:1039A0006F8FFEE78143616000F020F9606869680D
:1039B000084468602046FFF7D9FDBDE8704000F07C
:1039C000D5BE70BD740000204FF0E02000210161E1
:1039D000816105494FF47A720968B1FBF2F1491E21
:1039E00041610721016170473400002010B5FCF7E8
:1039F000CFFB114910280ED300F1E02090F8F0031E
:103A00000A78904207D2502080F31188BFF34F8F7D
:103A1000BFF36F8FFEE709480068896800F4E06033
:103A2000884207D9502080F31188BFF34F8FBFF32E
:103A30006F8FFEE710BD00008C0000200CED00E051
:103A400010B5020014D00F48806B38B1502080F3BD
:103A50001188BFF34F8FBFF36F8FFEE700F0C6F8FA
:103A600000211046FFF7D6FB00F080FE002807D1AA
:103A700005494FF080500860BFF34F8FBFF36F8F41
:103A800010BD00003800002004ED00E002498A6A01
:103A900002604969416070473800002001490120F7
:103AA000486270473800002010B50C4650B10949F3
:103AB00009681831FFF702FF2046BDE810400121D8
:103AC000FFF7A8BB502080F31188BFF34F8FBFF3DF
:103AD0006F8FFEE73800002070B504004BD0A26C59
:103AE000A2B1606C884200D30146E06A884242D0AD
:103AF000012A40D1204D2A6894420FD1502080F3F2
:103B00001188BFF34F8FBFF36F8FFEE7502080F314
:103B10001188BFF34F8FBFF36F8FFEE7E162A26999
:103B2000002A02DBC1F10701A161144E00EB800005
:103B3000616906EB800081421DD1201DFFF792FED6
:103B4000012150B9E06A00EB800256F8222022B928
:103B5000AA6901FA00F08243AA61E06AAA69814079
:103B60001143A96100EB800006EB8000211DBDE838
:103B70007040FFF7BBBE70BD38000020200400205D
:103B800010B586B00024039405AA04A903A80494E0
:103B9000FFF77CFEDDE903010094CDE9011000236D
:103BA0000EA11048059A00F074FC0F4900284863E4
:103BB00011D0502080F31188BFF34F8FBFF36F8F68
:103BC0004FF0FF3008630120C8614C6106B0BDE8CA
:103BD000104000F0FFB806B010BD000049444C454D
:103BE0000000000069340008380000200248816BA2
:103BF000491C816370470000380000201448816B25
:103C000011B1012141627047002141628169B1FA1D
:103C100081F1C1F11F0101EB81020E4951F82230FF
:103C20006BB101EB820101F108034A6852684A60F6
:103C30009A4201D152684A60D168016070475020B1
:103C400080F31188BFF34F8FBFF36F8FFEE7000043
:103C50003800002020040020054904480860054978
:103C600008600549FF200870704700002F110020F0
:103C7000A0000020A40000209F0000202DE9F047B4
:103C80000024314E314D06E0FFF79EFD01462888A5
:103C90003154401C288028881F2803D200F08EF859
:103CA0000028F1D1288807284CD33BE0315D552905
:103CB00001D0641C06E037197978AA29F9D1B978BE
:103CC00011B1A41CA4B22DE039797A790902C91D79
:103CD00011441FFA81F8B8F1260F01D9E41CF1E76D
:103CE000404523DBA8F101091FFA89F13846FEF7A8
:103CF00081FFA04408EB06018A4611F8011C8842A6
:103D00000BD01FFA89F13846FEF774FF1AF8012C20
:103D100001460FA0FEF736FCE0E72046FEF7EAFD7D
:103D20001FFA88F42888001B0728BFDA2888001BA0
:103D30000204120C2A8005D03119BDE8F047024870
:103D4000FFF72AB9BDE8F087101100209800002085
:103D5000637263206572726F7220286372633A30F7
:103D6000782558202062757420646174613A307837
:103D70002558290D0A00000070B50F4D55232B70F2
:103D8000AA236B70A970E870100A28716A71D21D9D
:103D900094B2601E81B22846FEF72CFF291901F863
:103DA000010C002C07D003E02878FFF73FFD6D1CC5
:103DB000641EA4B2F8D270BD461100200448D0E9B8
:103DC0000110814201D0012070470020704700009F
:103DD0009C0000201CB5264908780190FF2008703F
:103DE00008788DF800009DF800009DF8002000F094
:103DF000F000904207D0502080F31188BFF34F8F1E
:103E0000BFF36F8FFEE79DF800001A4B00F05000E3
:103E100018700720986005E09DF8002052008DF88A
:103E20000020401E9DF800201206F5D4986003285B
:103E300007D0502080F31188BFF34F8FBFF36F8FEF
:103E4000FEE74FF440709860019808700A480168D6
:103E500041F470010160016841F070410160FFF7B9
:103E6000B3FD00205860FCF75DF900201CBD000088
:103E700000E400E08C00002020ED00E0F8B51746DB
:103E80000E46050014D0DEB105FB06F04830FFF702
:103E9000FBFB04000AD0002084F8460004F148022D
:103EA0003B46314628460094FFF70EFB2046F8BDFE
:103EB000502080F31188BFF34F8FBFF36F8FFEE761
:103EC0000020E3E738B5049D18B153B1CAB181B100
:103ED00020E0502080F31188BFF34F8FBFF36F8F26
:103EE000FEE7502080F31188BFF34F8FBFF36F8F31
:103EF000FEE7502080F31188BFF34F8FBFF36F8F21
:103F0000FEE739B1502080F31188BFF34F8FBFF324
:103F10006F8FFEE748241C46012384F846302B4669
:103F20000094FFF7D1FA204638BD000070B50D4669
:103F3000040025D0FFF7E6FCD4E90F20216802FB3E
:103F4000001161600021A1632168A1600A46D4E9E3
:103F50000F01401E00FB0121E16021464FF0FF30C0
:103F600001F8440F487004F110008DB1FFF798FC80
:103F700004F12400FFF794FCFFF7E4FC012070BD7E
:103F8000502080F31188BFF34F8FBFF36F8FFEE790
:103F900021690029F0D000F0AFFB0028ECD00449E3
:103FA0004FF080500860BFF34F8FBFF36F8FE3E790
:103FB00004ED00E02DE9FF4782B01D468A464FF030
:103FC0000008040003D0BAF1000F08D011E050201F
:103FD00080F31188BFF34F8FBFF36F8FFEE7206C24
:103FE00038B1502080F31188BFF34F8FBFF36F8F2C
:103FF000FEE7022D0AD1E06B012807D0502080F3A4
:104000001188BFF34F8FBFF36F8FFEE700F06CFA9C
:104010003F4F4FF000094FF0805648B9049838B12F
:10402000502080F31188BFF34F8FBFF36F8FFEE7EF
:10403000FFF768FCA06BE16B884207D3022D05D027
:104040000498D0B1B8F1000F1AD01EE02A465146AC
:104050002046FFF792F9616A19B104F1240000F0DB
:104060004BFB20B13E60BFF34F8FBFF36F8FFFF765
:1040700069FC012006B0BDE8F087FFF763FC22E091
:104080006846FFF703FD4FF00108FFF75BFCFFF701
:10409000ADFDFFF737FC94F94400401C01D184F8D2
:1040A000449094F94500401C01D184F84590FFF7F5
:1040B00049FC04A9684600F085F930B12046FFF7B5
:1040C000ADFA00F053FB0020D4E7FFF71BFCA06B18
:1040D000E16B884213D1FFF735FC04F1100004991D
:1040E000FFF7E2FC2046FFF799FA00F03FFB0028BB
:1040F0009ED13E60BFF34F8FBFF36F8F98E7FFF7FE
:1041000021FC2046FFF78AFA00F030FB90E7000020
:1041100004ED00E070B50E46040009D0206C78B1C3
:10412000502080F31188BFF34F8FBFF36F8FFEE7EE
:10413000502080F31188BFF34F8FBFF36F8FFEE7DE
:10414000206848B9606838B1502080F31188BFF307
:104150004F8FBFF36F8FFEE7FFF748FC5020EFF360
:10416000118580F31188BFF34F8FBFF36F8FA16B61
:10417000E06B884218D994F94500491CA163411CA1
:1041800004D0401C84F8450001200EE0606A00283D
:10419000FAD004F1240000F0AFFA0028F4D0002E89
:1041A000F2D001203060EFE7002085F3118870BD68
:1041B0002DE9F04790468946040003D0B9F1000F7D
:1041C00008D011E0502080F31188BFF34F8FBFF368
:1041D0006F8FFEE7206C38B1502080F31188BFF359
:1041E0004F8FBFF36F8FFEE7FFF700FC5020EFF318
:1041F000118680F31188BFF34F8FBFF36F8FA76BCA
:10420000F7B194F9445049462046FFF7A3F87F1EC2
:10421000A763681C04D06D1C84F84450012010E092
:1042200020690028FAD004F1100000F065FA002897
:10423000F4D0B8F1000FF1D00121C8F80010EDE77B
:10424000002086F31188BDE8F08700002DE9F343D4
:10425000002683B00400354609D0206C78B1502088
:1042600080F31188BFF34F8FBFF36F8FFEE75020AD
:1042700080F31188BFF34F8FBFF36F8FFEE700F01D
:1042800033F9DFF83C814FF000094FF0805748B90F
:10429000049838B1502080F31188BFF34F8FBFF3DB
:1042A0006F8FFEE7FFF72EFBA06BC8B1401EA06327
:1042B000206810B9FFF754FA6060206950B104F12A
:1042C000100000F019FA28B1C8F80070BFF34F8F42
:1042D000BFF36F8FFFF736FB012005B0BDE8F08319
:1042E000049808B166B10FE03DB1502080F3118809
:1042F000BFF34F8FBFF36F8FFEE7FFF723FB5DE048
:104300006846FFF7C3FB0126FFF71CFBFFF76EFCB7
:10431000FFF7F8FA94F94400401C01D184F8449066
:1043200094F94500401C01D184F84590FFF70AFB41
:1043300004A9684600F046F80028204612D0FFF78E
:104340006DF900F013FA2046FFF736F90028A9D0DE
:104350009DB3FFF7D7FA606A50B3206B0068C0F1D5
:10436000070126E0FFF728F9E0B1206838B9FFF728
:10437000C9FA606800F076F90546FFF7E3FA04F140
:1043800024000499FFF790FB2046FFF747F900F05F
:10439000EDF9002886D1C8F80070BFF34F8FBFF346
:1043A0006F8F7FE72046FFF739F900F0DFF979E7F3
:1043B00000216068FFF790FB9FE7FFE700208CE794
:1043C00004ED00E02DE9F0410C46050011D0C4B128
:1043D000FFF798FA174B5A696E682068911B471CC3
:1043E00017D02F689B6A9F4219D0964217D8012494
:1043F00010E0502080F31188BFF34F8FBFF36F8F11
:10440000FEE7502080F31188BFF34F8FBFF36F8F0B
:10441000FEE70024FFF796FA2046BDE8F0818842C7
:1044200005D9401A20602846FFF730FBF1E700204D
:104430002060DCE7380000202DE9FF5F8346DDE9DE
:104440000E87994616468A469000FFF71DF905002B
:104450001CD05420FFF718F9040014D00020256365
:1044600084F85100CDE90240CDE900874B46324641
:1044700051465846FFF733F82046FEF703FF012068
:1044800004B0BDE8F09F2846FFF770FA4FF0FF3008
:10449000F6E7F0B585B0DDE90B640A9DA6B1DCB1A5
:1044A000542700972663022684F85160002604AF43
:1044B000CDE90246CDE90057FFF711F82046FEF797
:1044C000E1FE049805B0F0BD502080F31188BFF3E1
:1044D0004F8FBFF36F8FFEE7502080F31188BFF33B
:1044E0004F8FBFF36F8FFEE70548C16919B1806B2D
:1044F00018B100207047012070470220704700006B
:10450000380000202DE9F0412E4C0027A06B40B16F
:10451000206A401C2062606A00B101273846BDE86D
:10452000F0816669761C666113D16068006838B1F5
:10453000502080F31188BFF34F8FBFF36F8FFEE7DA
:104540006068A1686160A060A06A401CA062FFF77B
:1045500041F8206BDFF87080864209D360680068FC
:1045600080B16068C068C568686886420DD2206303
:104570002068C06A00EB800158F821000128CAD9E0
:104580000127C8E74FF0FF30F1E7281DFFF76AF970
:10459000A86A18B105F11800FFF764F9E86A01216B
:1045A000A26981401143A16100EB800108EB810009
:1045B000291DFFF79BF9E86A2168C96A8842CDD3B3
:1045C0000127CBE7380000202004002070B504004C
:1045D0004FF0000140D0214D2868844207D0502080
:1045E00080F31188BFF34F8FBFF36F8FFEE7A06C8E
:1045F00038B1401EA064636CE26A9A422CD040B18C
:104600002AE0502080F31188BFF34F8FBFF36F8FE4
:10461000FEE7201DFFF726F9114A012150B9E06A93
:1046200000EB800352F8233023B9AB6901FA00F0A4
:104630008343AB61606CE062C0F10700A061E06A97
:10464000AB6981401943A96100EB800002EB800057
:10465000211DFFF74BF90121084670BD38000020ED
:104660002004002070B504004FF0000038D0204D29
:10467000E16A2A68D26A914233D2A069002804DB39
:104680002868C06AC0F10700A0611A4E01EB8101E1
:10469000606906EB810188421ED1201DFFF7E2F818
:1046A000012150B9E06A00EB800256F8222022B9BD
:1046B000AA6901FA00F08243AA612868C06AE06230
:1046C000AA6981401143A96100EB800006EB8000DC
:1046D000211DFFF70BF902E02868C06AE0620120A3
:1046E00070BD616C2A68D26A9142F8D370BD000037
:1046F00038000020200400202DE9F041C068C46883
:10470000ACB104F118000746FFF7ACF8154DA86BE3
:104710000126A0B139461448FFF7E8F8E06A296895
:10472000C96A88421CD901206E62BDE8F081502020
:1047300080F31188BFF34F8FBFF36F8FFEE7201D0B
:10474000FFF790F8E16AAA6906FA01F01043A86140
:1047500001EB81000449B43901EB8000211DDBE746
:104760000020E2E738000020D40400202DE9F047C3
:104770002C4D00242746A86B38B1FFF7C3F8A86B6F
:10478000401EA863A86B40B146E0502080F311881A
:10479000BFF34F8FBFF36F8FFEE72969224E0120D1
:1047A000D1B3A6F1B40980463068E8B1F068C468B6
:1047B00004F11800FFF756F8201DFFF753F8E06AE0
:1047C000AA6908FA00F11143A96100EB800109EB25
:1047D0008100211DFFF78AF8E06A2968C96A8842CA
:1047E000E2D3C5F82480DFE70CB1FEF7F3FE2C6AB4
:1047F00044B14646FFF786FE00B16E62641EF9D1F1
:1048000000202862686A38B1084901273807086023
:10481000BFF34F8FBFF36F8FFFF794F83846BDE8B3
:10482000F087000038000020D404002004ED00E0F0
:1048300004490008DD20000800000000000000001E
:10484000800000000000000000000000EC480008AC
:10485000A5220008FDFF000000000000800000000D
:104860000000000000000000104900087922000844
:1048700000000000000000008000000000000000B8
:10488000000000001C4900083D2100080000000055
:104890000000000080000000000000000000000098
:1048A000F4480008ED2100080000000000000000AE
:1048B00040000000000000000000000000000000B8
:1048C00000000000010203040607080900000000C0
:1048D0000102030414011504160217021803190338
:1048E0001A021B031C036502660200005742335381
:1048F000000000005348414B455F50524F43455321
:104900005300000064656661756C745461736B00DC
:1049100054485F53656E736F720000004B657900F9
:104920004049000800000020B0000000C425000835
:10493000F0490008B0000020D0140000D425000881
:104940000000000000000000000000000000000067
:104950000000000000000000000000000000000057
:104960000000000000000000010000001000000036
:10497000000000000024F40000000000000000001F
:104980000000000000000000000000000000000027
:104990000000000000000000000000000000000017
:1049A0000000000000000000000000000000000007
:1049B00000000000000000000000000000000000F7
:1049C00000000000000000000000000000000000E7
:1049D000AAAAAAAA0000000000000000000000002F
:1049E00000000000000000000000000000000000C7
:04000005080000ED02
:00000001FF
