:020000040800F2
:1000000038060020010100084F1600083D140008C2
:100010004D1600086D0100089D1900080000000041
:10002000000000000000000000000000BD170008F4
:10003000C70100080000000051160008190100085F
:100040001B0100081B0100081B0100081B01000820
:100050001B0100081B0100081B0100081B01000810
:100060001B0100081B0100081B0100081B01000800
:100070001B010008910100081B0100081B0100087A
:100080001B0100081B0100081B0100081B010008E0
:100090001B0100081B0100081B0100081B010008D0
:1000A0001B0100086D1800081B0100081B01000857
:1000B0001B0100081B0100081B0100081B010008B0
:1000C0001B0100081B0100081B0100081B010008A0
:1000D0001B0100081B0100081B0100081B01000890
:1000E0001B0100081B0100081B010008DFF80CD0F1
:1000F00000F02AF800480047DD1900083806002003
:100100000648804706480047FEE7FEE7FEE7FEE7B1
:10011000FEE7FEE7FEE7FEE7FEE7FEE76B180008F6
:10012000ED000008D2B201E000F8012B491EFBD21D
:1001300070470022F6E710B513460A4604461946F2
:10014000FFF7F0FF204610BD064C074D06E0E068C3
:1001500040F0010394E8070098471034AC42F6D30E
:10016000FFF7C8FF381A0008581A0008FEE7000019
:10017000002108460A46054B01EB410119440A5487
:10018000401C0328FBD301F01BBB00000000002033
:10019000014800F01BB800002C01002030B590F899
:1001A00040500124AC40C56B6C60046863604368D8
:1001B000102B036803D099600068C26030BD9A605C
:1001C0000068C16030BD7047704700002DE9F05FE6
:1001D000C16B0C6801680B68D0F840C0042202FAB9
:1001E0000CF2494DDFF824A1494E4A4FDFF828B1FF
:1001F000DFF828E122422CD05A072AD50A68920655
:1002000003D40A6822F004020A600168A94201D1FD
:10021000042219E0514501D1402215E0B14202D13A
:100220004FF4806210E0B94202D14FF480420BE0FB
:10023000594502D14FF4802206E0714502D14FF4B6
:10024000800201E04FF080622F4908394A60C16A9C
:100250003BE04FF0020808FA0CF818EA040F4FF0E0
:1002600000094FF0010235D05FEA837832D50B6880
:100270009B0605D40B6823F00A030B6080F821204D
:100280000168A94201D1022219E0514501D1202281
:1002900015E0B14202D14FF4007210E0B94202D130
:1002A0004FF400520BE0594502D14FF4003206E002
:1002B000714502D14FF4001201E04FF00072124973
:1002C00008394A6080F82090816A00291AD0BDE878
:1002D000F05F0847082505FA0CF5254212D01B07E8
:1002E00010D50B6823F00E030B6090F84010C36B21
:1002F00002FA01F15960826380F8212080F8209091
:10030000016BE2E7BDE8F09F080002401C000240DC
:100310003000024044000240580002406C0002409D
:1003200030B528B308C8134914221944B1FBF2F1BF
:100330008900C16310498163022141771A6843F63D
:10034000F0718A43D0E900142143D0E902452C43DF
:1003500021430469214344692143846921431143B2
:10036000196000214163012242770177084630BDC0
:10037000012030BDF8FFFDBF0000024070B504460B
:1003800090F82000002501280CD0012084F82000DE
:1003900094F821600020012E06D084F82000022568
:1003A000284670BD022070BD022684F82160A0633B
:1003B0002068066826F0010606602046FFF7EEFE7C
:1003C000E06A00282068016802D041F00E0106E0D2
:1003D00021F0040101602068016841F00A01016018
:1003E0002068016841F001010160D9E770B5044659
:1003F00000F00CF90546601C02D004480078044463
:1004000000F004F9401BA042FAD370BD04000020A4
:100410002DE9F84FDFF8B891002409F1040A0AF138
:10042000040B23460F270BF1040EC9E00125A5405C
:100430002A40AA427DD1674ED1F804C0ACEB060831
:10044000B44532D014DCBCF1030F3AD009DCBCF166
:10045000000F2AD0BCF1010F1CD0BCF1020F31D12A
:100460001DE0BCF1110F17D0BCF1120F2AD119E019
:10047000B8F5881F19D006DCB8F5803F15D0B8F55F
:10048000801F1FD111E0B8F5001F0ED0B8F5041F72
:1004900018D10AE0CB6815E0CB681B1D12E0CB68D1
:1004A00008330FE0CB680C330CE08B682BB1012BC9
:1004B0004FF0080303D0456104E0042302E0056126
:1004C00000E00023FF2A01D8064601E000F10406FF
:1004D0004FEA840501D9A5F12005D6F8008007FA76
:1004E00005FC28EA0C0803FA05F548EA0508C6F8F1
:1004F00000804D68ED0062D5374DAE6946F00106CB
:10050000AE61AD6924F0030605F001050095334D99
:1005100006EB050CDCF80850A607360F07FA06F8BC
:1005200025EA0805DFF8B880404503D14FF0000800
:1005300017E044E0DFF8AC80404502D14FF00108FD
:100540000FE0DFF8A480404502D14FF0020808E038
:10055000DFF89880404502D14FF0030801E04FF0EA
:10056000040808FA06F848EA0508CCF808804D683F
:10057000D9F80060ED034D4601D5164300E09643DF
:100580002E604D68DAF80060AD03554601D516437C
:1005900000E096432E604D68DBF80060ED025D469A
:1005A00001D5164300E096432E604D68DEF80060EA
:1005B000AD02754601D5164300E096432E60641CDB
:1005C0000D682A46E5407FF431AFBDE8F88F0000A2
:1005D0000004014000001110001002400000014022
:1005E00000080140000C01400010014000140140CF
:1005F000C26821EA02030A4043EA024101617047EE
:100600000AB1016170470904FBE7000001488068F6
:10061000704700000400002070B5040025D094F855
:100620003D00002520B984F83C50204600F0B8F881
:10063000242084F83D002068016821F00101016058
:100640002068016841F4004101602068016821F4DC
:100650000041016000F058FA4D4A6168914201D8AA
:100660004C4900E04C49884201D2012070BD4B4901
:100670002368B0FBF1F15E6826F03F060E435E6032
:100680006368934206D94FF4967359434FF47A73D3
:10069000B1FBF3F12368491C1E6A26F03F06314383
:1006A00019626168914210D84900401EB0FBF1F216
:1006B000521CC2F30B02042A01D2042022E0B0FB38
:1006C000F1F0401CC0F30B001CE0A268F2B301EB98
:1006D000C10303EB0116431EB3FBF6F35B1C43F4AB
:1006E00080431B0549D092B301EBC10202EB01111B
:1006F000401EB0FBF1F0401CC0F30B0040F4804002
:1007000040F400402168CA694CF6FF739A431043D5
:10071000C861D4E9071001432068026822F0C002D2
:1007200011430160D4E9030101432068826848F263
:10073000FF339A4311438160D4E9050108432168DE
:10074000CA6822F0FF021043C86001E00EE016E024
:100750002068016841F0010101602564202084F8CF
:100760003D00256384F83E50002070BD01EB41063A
:10077000431EB3FBF6F35B1CB3E70120C2E701EBBA
:100780004101401EB0FBF1F0401CC0F30B00B7E785
:10079000A086010080841E0000093D0040420F0039
:1007A00030B585B0002100910191029103911E4D59
:1007B00003681E4C122103221D48AB4216D1A369C7
:1007C00043F00803A361A369039203F008030493B1
:1007D000C023CDE900316946FFF71AFEE06940F415
:1007E0000010E061E06900F4001019E0114DAB4227
:1007F00017D1A36943F00803A361A369039203F02F
:10080000080304934FF44063CDE900316946FFF7D4
:10081000FFFDE06940F48000E061E06900F48000E1
:10082000049005B030BD00000054004000100240AC
:10083000000C0140005800400248816802781144D1
:100840008160704704000020074810B5016841F03E
:1008500010010160032000F08FF8002000F006F87E
:1008600000F03EF8002010BD0020024000B5014617
:1008700087B00022192000F05FF8192000F04EF830
:100880001348816941F400618161806905A900F420
:1008900000600690684600F017F900F045F90D4930
:1008A0000D4AB0FBF1F10D48491E0260416040F273
:1008B000E7320021C0E90321816000F01DFC10B186
:1008C000012007B000BD054800F044FCF9E7000036
:1008D0000010024040420F00002C0140F0010020B7
:1008E0000C4808B5816941F001018161816901F01D
:1008F00001010091C16941F08051C161C06900F0FE
:10090000805000900448416821F0E06141F000719E
:10091000416008BD0010024000000140002809DBD2
:1009200000F01F02012191404009800000F1E02009
:10093000C0F8001170470000F0B40E4B1B680C4665
:10094000C3F30223C3F10705042D00D90425191DA3
:10095000072901D2002300E0DB1E012606FA05F17B
:10096000491E214099409E40761E16403143F0BCFE
:1009700001F015B80CED00E0064900F00702086828
:100980004FF6FF03184040EA0220034A1043086074
:10099000704700000CED00E00000FA052DE9F0477B
:1009A0000F46050061D0434E306800F00700B842A2
:1009B00009D2306820F0070038433060306800F01A
:1009C0000700B84251D128683B4C810712D5400737
:1009D00003D5606840F4E06060602878000703D5C4
:1009E000606840F4605060606068A96820F0F000C2
:1009F000084360602878C00728D06868012810D0B4
:100A00002168022810D0890700292EDA616821F0B8
:100A1000030101436160FFF7F9FD804641F2883927
:100A20000DE021688903EFE78901EDE7FFF7EEFDAF
:100A3000A0EB0801494502D90320BDE8F0876068B2
:100A4000696800F00C00B0EB810FEFD1306800F066
:100A50000700B8420BD9306820F0070038433060F7
:100A6000306800F00700B84201D00120E5E728789F
:100A7000400705D56068E96820F4E06008436060DD
:100A80002878000706D56068296920F4605040EA9C
:100A9000C100606000F058F86168084AC1F30311B2
:100AA000515CC8400649086006480068FFF7DEFE52
:100AB0000020C2E70020024000100240201A000877
:100AC00010000020080000200F2202600C4A53682A
:100AD00003F003034360536803F0F003836053683B
:100AE00003F4E063C36052684FF4E06303EAD202A8
:100AF00002610448006800F00700086070470000C9
:100B0000001002400020024004480549006849687E
:100B1000044AC1F30221515CC84070471000002014
:100B200000100240301A000804480549006849686E
:100B3000044AC1F3C221515CC84070471000002034
:100B400000100240301A000812A185B00FC98DE8CC
:100B50000F0014A0144A006804905168134801F073
:100B60000C03042B10D0082B0ED1C1F38343C9030F
:100B70001DF803000AD5516804AAC1F34041515C35
:100B80000A4A5043B0FBF1F005B0704708494843AA
:100B9000FAE7000002030405060708090A0B0C0D1A
:100BA0000E0F1010010200000010024000127A0027
:100BB00000093D002DE9F84F040070D02078C04DA9
:100BC000C00749D06868C0F38100012807D0686871
:100BD000C0F38100022809D16868C00306D52868DF
:100BE000800339D560680028E7D035E06068B0F54B
:100BF000803F0BD010B1B0F5A02F11D0286820F4A1
:100C000080302860286820F4802002E0286840F4C2
:100C100080302860606890B1FFF7F8FC06460AE073
:100C2000286840F480202860F0E700BFFFF7EEFC62
:100C3000801B642873D828688003F7D50CE0FFF781
:100C4000E5FC064605E000BFFFF7E0FC801B6428DA
:100C5000F0D828688003F7D420789A4E80074FF0A8
:100C600001094FF0000839D5686810F00C0F07D063
:100C70006868C0F38100022809D16868C00306D4FF
:100C80002868800714D52069012808D110E0206960
:100C9000B0B1C6F80090FFF7B9FC074605E00AE1DD
:100CA000FFF7B4FCC01B0228C4D828688007F7D51A
:100CB0002868616920F0F80040EAC10028600DE072
:100CC000C6F80080FFF7A2FC074604E0FFF79EFC91
:100CD000C01B022823D828688007F7D42078000793
:100CE0002CD57948A169D9B1C0F80090FFF78EFCE6
:100CF000074604E0FFF78AFCC01B02280FD8686A89
:100D00008007F7D571484FF4FA510068B0FBF1F055
:100D1000009000BF0098411E0091FAD20EE080E0E2
:100D2000C0F80080FFF772FC074604E0FFF76EFC96
:100D3000C01B022875D8686A8007F7D4207840075E
:100D400060D5E8690027C00008D4E86940F0805009
:100D5000E861E869012700F0805000905C48016874
:100D6000C90513D40168834641F480710160FFF71F
:100D70004DFC824606E000BFFFF748FCA0EB0A00EE
:100D800064284ED8DBF80000C005F5D5E0680128DE
:100D90000AD008B1052813D0286A20F00100286283
:100DA000286A20F0040002E0286A40F0010028626E
:100DB000E06841F2883B98B1FFF728FC82460BE0DF
:100DC000286A40F004002862EEE700BFFFF71EFC2F
:100DD000A0EB0A0159455AD8286A8007F6D50CE0DD
:100DE000FFF714FC824605E0FFF710FCA0EB0A01B8
:100DF00059454CD8286A8007F6D41FB1E86920F01D
:100E00008050E861E06988B36968C1F38101022913
:100E100044D00228C6F8608004D0FFF7F7FB0446F0
:100E200038E034E0FFF7F2FB074604E0FFF7EEFBA3
:100E3000C01B02282BD828688001F7D4206AB0F59F
:100E4000803F05D16868A16820F4003008436860DD
:100E5000D4E908010843696821F474110843686003
:100E6000C6F86090FFF7D2FB044606E025E000BF1D
:100E7000FFF7CCFB001B022809D828688001F7D5B2
:100E80001BE000BFFFF7C2FB001B022802D90320B2
:100E9000BDE8F88F28688001F4D40EE00128F7D06F
:100EA0006868226A00F48031914204D1616A00F4DA
:100EB0007010884201D00120EAE70020E8E7000036
:100EC0000010024000004242800442421000002014
:100ED00000700040704770B5040009D0606A0025BA
:100EE00040B125616561A56294F8510040B10CE004
:100EF000012070BD6068B0F5827FF4D0E561F2E753
:100F000084F85050204600F03FF8022084F8510049
:100F10002068016821F040010160A088218900F467
:100F2000827001F404410843A18901F4006108437F
:100F3000217C01F002010843217D01F001010843F9
:100F4000218B01F400710843217F01F0380108432F
:100F500094F8201001F080010843218D01F4005124
:100F6000084321680860A069042101EA1040216853
:100F700048602068C16921F40061C1616565012094
:100F800084F85100002070BD70B586B0002506467B
:100F9000009501950295039500681A4988422ED163
:100FA0001949886940F480508861886900F480504C
:100FB0000490886940F0040088618869694600F0FF
:100FC00004000490A02000900220019003200390D0
:100FD0000E48FFF71DFA0F4C0D4820601020C4E9A1
:100FE00001058020C4E903056561A5612046E5612E
:100FF000FFF796F908B1FFF7E7F8B464666206B048
:1010000070BD0000003001400010024000080140A7
:10101000300002402C0100202DE9F041044690F8F8
:1010200050000026012809D0012784F8507094F858
:1010300051000025012804D002264EE00220BDE820
:10104000F08189B182B1032084F851006565216384
:10105000A286E286A56365642564A587E587A06806
:10106000B0F5004F02D00BE0012636E020680168A1
:1010700021F0400101602068016841F48041016075
:10108000A16C1848C862A16C17488862A16C174807
:101090000863A06C4563E38E2268216B0C32A06C60
:1010A000FFF76CF938B1606D40F010006065012603
:1010B00084F8517011E020680168490603D4016882
:1010C00041F0400101602068416841F02001416029
:1010D0002068416841F00201416084F85050304678
:1010E000ADE70000751600087F16000853160008CB
:1010F000704770477047704710B5040003D094F8EC
:101100003D0010B107E0012010BD002084F83C0034
:10111000204600F01EF8022084F83D00211D2068C2
:1011200000F0AAFB012084F8460084F83E0084F811
:101130003F0084F8400084F8410084F8420084F8BD
:10114000430084F8440084F8450084F83D00002002
:1011500010BD704790F83D10012901D00120704763
:10116000022180F83D100168CA6842F00102CA609D
:1011700000680B49884208D0B0F1804F05D009497A
:10118000884202D00849884204D1816801F00701F1
:10119000062903D0016841F0010101600020704779
:1011A000002C01400004004000080040704770B56A
:1011B0000446006801694FF00005C943890715D44A
:1011C000C168C943890711D4E91E01610120207754
:1011D000206880698007204602D0FFF7E7FF04E01F
:1011E00000F098F8204600F096F82577206801690D
:1011F000C943490717D4C168C943490713D46FF0DD
:1012000004010161022020772068806910F4407F8A
:10121000204602D0FFF7CAFF04E000F07BF820462A
:1012200000F079F8257720680169C943090716D4C9
:10123000C168C943090712D46FF008010161042095
:1012400020772068C0698007204602D0FFF7AEFFF4
:1012500004E000F05FF8204600F05DF82577206894
:101260000169C943C90617D4C168C943C90613D463
:101270006FF010010161082020772068C06910F428
:10128000407F204602D0FFF791FF04E000F042F8D3
:10129000204600F040F8257720680169C943C90756
:1012A00008D1C168C943C90704D1891E016120461C
:1012B00000F032F820680169C943090609D4C16801
:1012C000C943090605D46FF0800101612046FFF78C
:1012D00011FF20680169C943490609D4C168C9439F
:1012E000490605D46FF040010161204600F01EF868
:1012F00020680169C94389060BD4C168C9438906BE
:1013000007D46FF0200101612046BDE87040FFF76F
:10131000F2BE70BD7047704700680349884201D132
:10132000FFF78ABA70470000002C0140704770B583
:10133000040004D094F83900002510B106E0012023
:1013400070BD84F83850204600F022F8242084F83C
:1013500039002068C16821F40051C160204600F0C6
:10136000C1FA2068016921F4904101612068416956
:1013700021F02A0141612068C16841F40051C16037
:10138000E563202084F8390084F83A00002070BD1D
:1013900070B586B000240094019402940394234E07
:1013A0000368234902200322224DB34219D18B69DD
:1013B00043F480438B618B6903F4804304938B690E
:1013C00043F004038B618969039201F004010491E5
:1013D0000102CDE9001069462846FFF719F82815E3
:1013E0001BE0154EB3421FD1CB6943F40033CB61F0
:1013F000CB6903F4003304938B6943F004038B61DE
:101400008969039201F0040104910421CDE90010DF
:1014100069462846FEF7FCFF0820CDE9000469462E
:1014200028460294FEF7F4FF06B070BD0038014074
:10143000001002400008014000440040FEE70000A8
:10144000094808B5416941F0010141614069002244
:1014500000F00100009011460D20FFF76DFABDE885
:1014600008400D20FFF75ABA0010024070B586B050
:10147000002424480094019402940394816941F06B
:1014800020018161816901F020010491816941F0AD
:1014900004018161816901F004010491816941F0D5
:1014A000080181618069184E00F008000490012253
:1014B00041F602013046FFF7A3F80022B11530468D
:1014C000FFF79EF841F602100125CDE90005022044
:1014D000CDE9024069463046FEF79AFF06200090AB
:1014E0000A48CDE901040A4E69463046FEF790FFEE
:1014F00028038DE8310069463046FEF789FF06B0C3
:1015000070BD0000001002400008014000001110F2
:10151000000C01400D4810B50B4901600C494160B9
:1015200000214FF480428160C0E903124161816172
:10153000C1610162FFF770F8002803D0BDE81040D8
:10154000FEF742BE10BD0000005400402C000020F9
:10155000A08601000D4810B50B4901600C4941609F
:1015600000214FF480428160C0E903124161816132
:10157000C1610162FFF750F8002803D0BDE81040B8
:10158000FEF722BE10BD0000005800408000002081
:10159000A0860100104810B50E4901604FF4827119
:1015A0004160002102228160C0E9031201224261F0
:1015B000520282610822C0E90721416281620A2148
:1015C000C162FFF788FC002803D0BDE81040FEF799
:1015D000FBBD10BD00300140D40000200C4810B508
:1015E0000A4901604FF4E1314160002181600C2221
:1015F000C160C0E904128161C161FFF798FE002853
:1016000003D0BDE81040FEF7DFBD10BD003801403B
:10161000700100200C4810B50A4901604FF4E13117
:101620004160002181600C22C160C0E90412816127
:10163000C161FFF77CFE002803D0BDE81040FEF733
:10164000C3BD10BD00440040B0010020FEE770475C
:10165000704710B5406A01684A6822F003024A6088
:10166000416D41F010014165012180F85110FFF7F3
:1016700031FC10BD10B5406AFFF73BFD10BD38B519
:101680000546446AFEF7C2FF0246286800688006E5
:1016900023D42068416821F020014160206841681E
:1016A00021F0020141606421204600F01AF818B1CF
:1016B000606D40F020006065A068002118B92068C6
:1016C000C26880680090E186012084F85100606D56
:1016D00018B12046FFF7FEFB38BD2046FFF708FD96
:1016E00038BD38B50B46009204460022802100F038
:1016F00009F8002804D0606D40F0200060650320E8
:1017000038BD00002DE9F8431E4691468846044640
:10171000089DFEF77BFF401B351AFEF777FF074653
:1017200025480068C0F3CB30684338E0701C37D0E0
:10173000FEF76CFFC01BA84203D215B1009860B33E
:101740002CE02068416821F0E00141606068B0F55C
:10175000827F0BD1A068B0F5004F02D0B0F5806F4A
:1017600004D12068016821F040010160A06AB0F551
:10177000005F09D12068016821F4005101602068F0
:10178000016841F400510160012084F851000020FB
:1017900084F850000320BDE8F8830025401E009027
:1017A0002068816838EA010004D000214945BDD194
:1017B0000020F0E70121F9E7100000207047000049
:1017C0002DE9F0410021134B01EB4100C618012423
:1017D000114D0A46F8274FF0E00C16F802300020B1
:1017E000C0F1070E04FA0EFE13EA0E0F01D06F547B
:1017F00001E005F801C0401C491C0828F0D3521C28
:10180000032AEAD3BDE8F041182203490348FFF751
:1018100003BC00000000002014000020D4000020C1
:1018200030B58FB028216846FEF783FC14210AA842
:10183000FEF77FFC01210804CDE90010002402948A
:1018400002250491CDE90750C00009906846FFF7D2
:10185000B1F90F200A90CDE90B540D9401210AA88B
:101860000E94FFF79BF80FB030BD70470148FFF7AB
:101870009EBC0000F0010020F0B50268164B174C2A
:10188000174D4FF08047984205D0B84203D0A04290
:1018900001D0A84203D122F070064A683243984230
:1018A00005D0B84203D0A04201D0A84203D122F40F
:1018B0004074CA6822434C6922F0800222430260CD
:1018C0008A68C2620A688262984201D1096901632A
:1018D00001214161F0BD0000002C014000040040E6
:1018E0000008004070B5044600680169E26821F410
:1018F0004051114301612169A068084361690843AF
:101900002168CA6841F20C639A430243CA602068A6
:101910004169A26921F44071114341611E49206867
:10192000884202D1FFF700F901E0FFF7EDF800EB84
:10193000C00101EB0012606864218000B2FBF0F38B
:10194000B3FBF1F36FF018067343B2FBF0F5B2FB93
:10195000F0F605EB8305322303EB0515B5FBF1F536
:10196000B6FBF1F605F0F00505EB0615B2FBF0F657
:10197000B2FBF0F0B0FBF1F06FF01802504306EB51
:10198000800003EB0010B0FBF1F0216800F00F00C5
:101990002844886070BD000000380140FEE7090758
:1019A000090E002804DB00F1E02080F800147047E5
:1019B00000F00F0000F1E02080F8141D704702E0F5
:1019C00008C8121F08C1002AFAD1704770470020CA
:1019D00001E001C1121F002AFBD17047FEF734FF5E
:1019E000FFF71EFFFFF742FDFFF72AFDFFF792FD0D
:1019F000FFF7D0FDFFF7F2FDFFF70CFEFFF7AAFDA2
:101A0000064D4FF4FA742046FEF7F0FC02212846FA
:101A1000FEF7EEFDFEF7ACFBF5E700000008014025
:101A2000000000000000000001020304060708098E
:101A30000000000001020304581A00080000002002
:101A400014000000BE1900086C1A000814000020E1
:101A500024060000CE19000800000000010000006C
:0C1A600010000000000000000024F40052
:04000005080000ED02
:00000001FF
